{
  "contractName": "Factory",
  "abi": [
    {
      "inputs": [
        {
          "internalType": "address",
          "name": "_libraryAddress",
          "type": "address"
        }
      ],
      "stateMutability": "nonpayable",
      "type": "constructor"
    },
    {
      "anonymous": false,
      "inputs": [
        {
          "indexed": false,
          "internalType": "address",
          "name": "newProgram",
          "type": "address"
        }
      ],
      "name": "MatchingProgramCreated",
      "type": "event"
    },
    {
      "anonymous": false,
      "inputs": [
        {
          "indexed": true,
          "internalType": "address",
          "name": "previousOwner",
          "type": "address"
        },
        {
          "indexed": true,
          "internalType": "address",
          "name": "newOwner",
          "type": "address"
        }
      ],
      "name": "OwnershipTransferred",
      "type": "event"
    },
    {
      "inputs": [],
      "name": "libraryAddress",
      "outputs": [
        {
          "internalType": "address",
          "name": "",
          "type": "address"
        }
      ],
      "stateMutability": "view",
      "type": "function"
    },
    {
      "inputs": [],
      "name": "owner",
      "outputs": [
        {
          "internalType": "address",
          "name": "",
          "type": "address"
        }
      ],
      "stateMutability": "view",
      "type": "function"
    },
    {
      "inputs": [],
      "name": "renounceOwnership",
      "outputs": [],
      "stateMutability": "nonpayable",
      "type": "function"
    },
    {
      "inputs": [
        {
          "internalType": "address",
          "name": "newOwner",
          "type": "address"
        }
      ],
      "name": "transferOwnership",
      "outputs": [],
      "stateMutability": "nonpayable",
      "type": "function"
    },
    {
      "inputs": [
        {
          "internalType": "address",
          "name": "_libraryAddress",
          "type": "address"
        }
      ],
      "name": "setLibraryAddress",
      "outputs": [],
      "stateMutability": "nonpayable",
      "type": "function"
    },
    {
      "inputs": [
        {
          "internalType": "address",
          "name": "inputSBTOwner",
          "type": "address"
        },
        {
          "internalType": "bytes32",
          "name": "inputCategory",
          "type": "bytes32"
        },
        {
          "internalType": "bytes32",
          "name": "inputProgramName",
          "type": "bytes32"
        },
        {
          "internalType": "bytes32",
          "name": "inputProgramDescription",
          "type": "bytes32"
        },
        {
          "internalType": "address",
          "name": "intendedRecipient",
          "type": "address"
        },
        {
          "internalType": "bytes32",
          "name": "inputRecipientName",
          "type": "bytes32"
        },
        {
          "internalType": "uint256",
          "name": "inputEndTime",
          "type": "uint256"
        }
      ],
      "name": "CreateNewProgram",
      "outputs": [],
      "stateMutability": "nonpayable",
      "type": "function"
    }
  ],
  "bytecode": "0x608060405234801561000f575f80fd5b50604051610a24380380610a24833981810160405281019061003191906101b9565b61004d61004261009360201b60201c565b61009a60201b60201c565b8060015f6101000a81548173ffffffffffffffffffffffffffffffffffffffff021916908373ffffffffffffffffffffffffffffffffffffffff160217905550506101e4565b5f33905090565b5f805f9054906101000a900473ffffffffffffffffffffffffffffffffffffffff169050815f806101000a81548173ffffffffffffffffffffffffffffffffffffffff021916908373ffffffffffffffffffffffffffffffffffffffff1602179055508173ffffffffffffffffffffffffffffffffffffffff168173ffffffffffffffffffffffffffffffffffffffff167f8be0079c531659141344cd1fd0a4f28419497f9722a3daafe3b4186f6b6457e060405160405180910390a35050565b5f80fd5b5f73ffffffffffffffffffffffffffffffffffffffff82169050919050565b5f6101888261015f565b9050919050565b6101988161017e565b81146101a2575f80fd5b50565b5f815190506101b38161018f565b92915050565b5f602082840312156101ce576101cd61015b565b5b5f6101db848285016101a5565b91505092915050565b610833806101f15f395ff3fe608060405234801561000f575f80fd5b5060043610610060575f3560e01c80634863ba171461006457806363157d3c14610080578063715018a61461009c5780638da5cb5b146100a6578063b816f513146100c4578063f2fde38b146100e2575b5f80fd5b61007e60048036038101906100799190610516565b6100fe565b005b61009a600480360381019061009591906105a7565b610149565b005b6100a4610229565b005b6100ae61023c565b6040516100bb9190610653565b60405180910390f35b6100cc610263565b6040516100d99190610653565b60405180910390f35b6100fc60048036038101906100f79190610516565b610288565b005b61010661030a565b8060015f6101000a81548173ffffffffffffffffffffffffffffffffffffffff021916908373ffffffffffffffffffffffffffffffffffffffff16021790555050565b5f61017460015f9054906101000a900473ffffffffffffffffffffffffffffffffffffffff16610388565b90508073ffffffffffffffffffffffffffffffffffffffff1663681c893a898989898989896040518863ffffffff1660e01b81526004016101bb979695949392919061068a565b5f604051808303815f87803b1580156101d2575f80fd5b505af11580156101e4573d5f803e3d5ffd5b505050507fc84821052006cd02b998b9740efbc514d6a02c73f7f219884dafc6529a357872816040516102179190610653565b60405180910390a15050505050505050565b61023161030a565b61023a5f6103f0565b565b5f805f9054906101000a900473ffffffffffffffffffffffffffffffffffffffff16905090565b60015f9054906101000a900473ffffffffffffffffffffffffffffffffffffffff1681565b61029061030a565b5f73ffffffffffffffffffffffffffffffffffffffff168173ffffffffffffffffffffffffffffffffffffffff16036102fe576040517f08c379a00000000000000000000000000000000000000000000000000000000081526004016102f590610777565b60405180910390fd5b610307816103f0565b50565b6103126104b1565b73ffffffffffffffffffffffffffffffffffffffff1661033061023c565b73ffffffffffffffffffffffffffffffffffffffff1614610386576040517f08c379a000000000000000000000000000000000000000000000000000000000815260040161037d906107df565b60405180910390fd5b565b5f808260601b90506040517f3d602d80600a3d3981f3363d3d373d3d3d363d7300000000000000000000000081528160148201527f5af43d82803e903d91602b57fd5bf3000000000000000000000000000000000060288201526037815ff092505050919050565b5f805f9054906101000a900473ffffffffffffffffffffffffffffffffffffffff169050815f806101000a81548173ffffffffffffffffffffffffffffffffffffffff021916908373ffffffffffffffffffffffffffffffffffffffff1602179055508173ffffffffffffffffffffffffffffffffffffffff168173ffffffffffffffffffffffffffffffffffffffff167f8be0079c531659141344cd1fd0a4f28419497f9722a3daafe3b4186f6b6457e060405160405180910390a35050565b5f33905090565b5f80fd5b5f73ffffffffffffffffffffffffffffffffffffffff82169050919050565b5f6104e5826104bc565b9050919050565b6104f5816104db565b81146104ff575f80fd5b50565b5f81359050610510816104ec565b92915050565b5f6020828403121561052b5761052a6104b8565b5b5f61053884828501610502565b91505092915050565b5f819050919050565b61055381610541565b811461055d575f80fd5b50565b5f8135905061056e8161054a565b92915050565b5f819050919050565b61058681610574565b8114610590575f80fd5b50565b5f813590506105a18161057d565b92915050565b5f805f805f805f60e0888a0312156105c2576105c16104b8565b5b5f6105cf8a828b01610502565b97505060206105e08a828b01610560565b96505060406105f18a828b01610560565b95505060606106028a828b01610560565b94505060806106138a828b01610502565b93505060a06106248a828b01610560565b92505060c06106358a828b01610593565b91505092959891949750929550565b61064d816104db565b82525050565b5f6020820190506106665f830184610644565b92915050565b61067581610541565b82525050565b61068481610574565b82525050565b5f60e08201905061069d5f83018a610644565b6106aa602083018961066c565b6106b7604083018861066c565b6106c4606083018761066c565b6106d16080830186610644565b6106de60a083018561066c565b6106eb60c083018461067b565b98975050505050505050565b5f82825260208201905092915050565b7f4f776e61626c653a206e6577206f776e657220697320746865207a65726f20615f8201527f6464726573730000000000000000000000000000000000000000000000000000602082015250565b5f6107616026836106f7565b915061076c82610707565b604082019050919050565b5f6020820190508181035f83015261078e81610755565b9050919050565b7f4f776e61626c653a2063616c6c6572206973206e6f7420746865206f776e65725f82015250565b5f6107c96020836106f7565b91506107d482610795565b602082019050919050565b5f6020820190508181035f8301526107f6816107bd565b905091905056fea26469706673582212209964db79f5b48449f5e7a56c2a88e335bc9a75eb19996c882e7b85b5c882bd1864736f6c63430008150033",
  "immutableReferences": {},
  "source": "pragma solidity >=0.4.22 <0.9.0;\n\nimport \"./MatchingProgram.sol\";\nimport \"./CloneFactory.sol\";\n\nimport \"@openzeppelin/contracts/access/Ownable.sol\";\n\ncontract Factory is CloneFactory, Ownable {\n    address public libraryAddress;\n\n    event MatchingProgramCreated(address newProgram);\n\n    constructor(address _libraryAddress) {\n        libraryAddress = _libraryAddress;\n    }\n\n    function setLibraryAddress(address _libraryAddress) public onlyOwner {\n        libraryAddress = _libraryAddress;\n    }\n\n    function CreateNewProgram(\n        address inputSBTOwner,\n        bytes32 inputCategory,\n        bytes32 inputProgramName,\n        bytes32 inputProgramDescription,\n        address intendedRecipient,\n        bytes32 inputRecipientName,\n        uint inputEndTime\n    ) public {\n        \n        address clone = createClone(libraryAddress);\n        MatchingProgram(clone).init(\n            inputSBTOwner,\n            inputCategory,\n            inputProgramName,\n            inputProgramDescription,\n            intendedRecipient,\n            inputRecipientName,\n            inputEndTime\n        );\n        emit MatchingProgramCreated(clone);\n    }\n}\n",
  "sourcePath": "/Users/Daniel/Documents/projects/ethDonate/contracts/Factory.sol",
  "compiler": {
    "name": "solc",
    "version": "0.8.21+commit.d9974bed.Emscripten.clang"
  },
  "schemaVersion": "3.4.16",
  "updatedAt": "2023-09-11T18:23:27.400Z",
  "devdoc": {
    "kind": "dev",
    "methods": {
      "owner()": {
        "details": "Returns the address of the current owner."
      },
      "renounceOwnership()": {
        "details": "Leaves the contract without owner. It will not be possible to call `onlyOwner` functions. Can only be called by the current owner. NOTE: Renouncing ownership will leave the contract without an owner, thereby disabling any functionality that is only available to the owner."
      },
      "transferOwnership(address)": {
        "details": "Transfers ownership of the contract to a new account (`newOwner`). Can only be called by the current owner."
      }
    },
    "version": 1
  },
  "userdoc": {
    "kind": "user",
    "methods": {},
    "version": 1
  }
}