{
  "contractName": "MatchingProgram",
  "abi": [
    {
      "inputs": [
        {
          "internalType": "address",
          "name": "inputSBTOwner",
          "type": "address"
        },
        {
          "internalType": "bytes32",
          "name": "inputCategory",
          "type": "bytes32"
        },
        {
          "internalType": "bytes32",
          "name": "inputProgramName",
          "type": "bytes32"
        },
        {
          "internalType": "bytes32",
          "name": "inputProgramDescription",
          "type": "bytes32"
        },
        {
          "internalType": "address",
          "name": "intendedRecipient",
          "type": "address"
        },
        {
          "internalType": "bytes32",
          "name": "inputRecipientName",
          "type": "bytes32"
        },
        {
          "internalType": "uint256",
          "name": "inputEndTime",
          "type": "uint256"
        }
      ],
      "stateMutability": "nonpayable",
      "type": "constructor"
    },
    {
      "inputs": [],
      "name": "FundraiseEnded",
      "type": "error"
    },
    {
      "inputs": [],
      "name": "FundraiseNotEnded",
      "type": "error"
    },
    {
      "inputs": [],
      "name": "NoAmountSent",
      "type": "error"
    },
    {
      "inputs": [],
      "name": "NoMatchingAmountSet",
      "type": "error"
    },
    {
      "inputs": [],
      "name": "PastInitialFundState",
      "type": "error"
    },
    {
      "inputs": [],
      "name": "RatioLessThanOne",
      "type": "error"
    },
    {
      "anonymous": false,
      "inputs": [
        {
          "indexed": false,
          "internalType": "uint256",
          "name": "donatedAmount",
          "type": "uint256"
        }
      ],
      "name": "DonatedEvent",
      "type": "event"
    },
    {
      "anonymous": false,
      "inputs": [
        {
          "indexed": false,
          "internalType": "uint256",
          "name": "matchingAmount",
          "type": "uint256"
        }
      ],
      "name": "MatchingProgramStartedEvent",
      "type": "event"
    },
    {
      "anonymous": false,
      "inputs": [
        {
          "indexed": false,
          "internalType": "address",
          "name": "donorAddress",
          "type": "address"
        }
      ],
      "name": "NewTopDonorEvent",
      "type": "event"
    },
    {
      "inputs": [],
      "name": "state",
      "outputs": [
        {
          "internalType": "uint256",
          "name": "",
          "type": "uint256"
        }
      ],
      "stateMutability": "view",
      "type": "function"
    },
    {
      "inputs": [],
      "name": "getState",
      "outputs": [
        {
          "internalType": "uint256",
          "name": "",
          "type": "uint256"
        }
      ],
      "stateMutability": "view",
      "type": "function"
    },
    {
      "inputs": [],
      "name": "getMatchingAmountLeft",
      "outputs": [
        {
          "internalType": "uint256",
          "name": "",
          "type": "uint256"
        }
      ],
      "stateMutability": "view",
      "type": "function"
    },
    {
      "inputs": [],
      "name": "getInitialMatchingAmount",
      "outputs": [
        {
          "internalType": "uint256",
          "name": "",
          "type": "uint256"
        }
      ],
      "stateMutability": "view",
      "type": "function"
    },
    {
      "inputs": [
        {
          "internalType": "address",
          "name": "inputSBTOwner",
          "type": "address"
        },
        {
          "internalType": "bytes32",
          "name": "inputCategory",
          "type": "bytes32"
        },
        {
          "internalType": "bytes32",
          "name": "inputProgramName",
          "type": "bytes32"
        },
        {
          "internalType": "bytes32",
          "name": "inputProgramDescription",
          "type": "bytes32"
        },
        {
          "internalType": "address",
          "name": "intendedRecipient",
          "type": "address"
        },
        {
          "internalType": "bytes32",
          "name": "inputRecipientName",
          "type": "bytes32"
        },
        {
          "internalType": "uint256",
          "name": "inputEndTime",
          "type": "uint256"
        }
      ],
      "name": "init",
      "outputs": [],
      "stateMutability": "nonpayable",
      "type": "function"
    },
    {
      "inputs": [
        {
          "internalType": "uint256",
          "name": "ratio",
          "type": "uint256"
        },
        {
          "internalType": "address",
          "name": "inputSponsor",
          "type": "address"
        },
        {
          "internalType": "bytes32",
          "name": "inputSponsorName",
          "type": "bytes32"
        }
      ],
      "name": "fundInitialMatchingAccount",
      "outputs": [],
      "stateMutability": "payable",
      "type": "function"
    },
    {
      "inputs": [],
      "name": "donate",
      "outputs": [],
      "stateMutability": "payable",
      "type": "function"
    },
    {
      "inputs": [],
      "name": "endFundRaise",
      "outputs": [],
      "stateMutability": "nonpayable",
      "type": "function"
    },
    {
      "inputs": [],
      "name": "refundMatchingAmount",
      "outputs": [],
      "stateMutability": "nonpayable",
      "type": "function"
    }
  ],
  "bytecode": "0x608060405234801562000010575f80fd5b5060405162000ef238038062000ef28339818101604052810190620000369190620001c8565b86600c5f6101000a81548173ffffffffffffffffffffffffffffffffffffffff021916908373ffffffffffffffffffffffffffffffffffffffff16021790555085600b819055508260015f6101000a81548173ffffffffffffffffffffffffffffffffffffffff021916908373ffffffffffffffffffffffffffffffffffffffff160217905550816002819055508460098190555083600a8190555080600e819055505f80819055505f6010819055505050505050505062000276565b5f80fd5b5f73ffffffffffffffffffffffffffffffffffffffff82169050919050565b5f6200012282620000f7565b9050919050565b620001348162000116565b81146200013f575f80fd5b50565b5f81519050620001528162000129565b92915050565b5f819050919050565b6200016c8162000158565b811462000177575f80fd5b50565b5f815190506200018a8162000161565b92915050565b5f819050919050565b620001a48162000190565b8114620001af575f80fd5b50565b5f81519050620001c28162000199565b92915050565b5f805f805f805f60e0888a031215620001e657620001e5620000f3565b5b5f620001f58a828b0162000142565b9750506020620002088a828b016200017a565b96505060406200021b8a828b016200017a565b95505060606200022e8a828b016200017a565b9450506080620002418a828b0162000142565b93505060a0620002548a828b016200017a565b92505060c0620002678a828b01620001b2565b91505092959891949750929550565b610c6e80620002845f395ff3fe608060405260043610610085575f3560e01c80638550f48d116100585780638550f48d1461010d578063889d3b2c146101375780639404cabb14610161578063c19d93fb14610177578063ed88c68e146101a157610085565b80631865c57d1461008957806319d95163146100b3578063219142eb146100c9578063681c893a146100e5575b5f80fd5b348015610094575f80fd5b5061009d6101ab565b6040516100aa919061097b565b60405180910390f35b3480156100be575f80fd5b506100c76101b3565b005b6100e360048036038101906100de9190610a4f565b610258565b005b3480156100f0575f80fd5b5061010b60048036038101906101069190610a9f565b6103e1565b005b348015610118575f80fd5b5061012161049a565b60405161012e919061097b565b60405180910390f35b348015610142575f80fd5b5061014b6104a3565b604051610158919061097b565b60405180910390f35b34801561016c575f80fd5b506101756104ac565b005b348015610182575f80fd5b5061018b6105a3565b604051610198919061097b565b60405180910390f35b6101a96105a8565b005b5f8054905090565b60025f5410156101ef576040517f554654bb00000000000000000000000000000000000000000000000000000000815260040160405180910390fd5b60035f9054906101000a900473ffffffffffffffffffffffffffffffffffffffff1673ffffffffffffffffffffffffffffffffffffffff166108fc60085490811502906040515f60405180830381858888f19350505050158015610255573d5f803e3d5ffd5b50565b5f3403610291576040517f4518146e00000000000000000000000000000000000000000000000000000000815260040160405180910390fd5b5f8054146102cb576040517f819dd98700000000000000000000000000000000000000000000000000000000815260040160405180910390fd5b5f8311610304576040517f03b1d45000000000000000000000000000000000000000000000000000000000815260040160405180910390fd5b600e54421015610340576040517fd02ce1d200000000000000000000000000000000000000000000000000000000815260040160405180910390fd5b346008819055503460078190555082600d819055508160035f6101000a81548173ffffffffffffffffffffffffffffffffffffffff021916908373ffffffffffffffffffffffffffffffffffffffff160217905550806004819055507f4252cea3513ce29b45f3d459bada8ec0d6626baf3dbfe1a8538f7ca2d85aefbd6008546040516103cd919061097b565b60405180910390a160015f81905550505050565b86600c5f6101000a81548173ffffffffffffffffffffffffffffffffffffffff021916908373ffffffffffffffffffffffffffffffffffffffff16021790555085600b819055508260015f6101000a81548173ffffffffffffffffffffffffffffffffffffffff021916908373ffffffffffffffffffffffffffffffffffffffff160217905550816002819055508460098190555083600a8190555080600e819055505f80819055505f60108190555050505050505050565b5f600754905090565b5f600854905090565b600e544210156104e8576040517fd02ce1d200000000000000000000000000000000000000000000000000000000815260040160405180910390fd5b5f6010541461059a57600c5f9054906101000a900473ffffffffffffffffffffffffffffffffffffffff1673ffffffffffffffffffffffffffffffffffffffff166340d097c360055f9054906101000a900473ffffffffffffffffffffffffffffffffffffffff166040518263ffffffff1660e01b815260040161056c9190610b4b565b5f604051808303815f87803b158015610583575f80fd5b505af1158015610595573d5f803e3d5ffd5b505050505b60025f81905550565b5f5481565b5f8054036105e2576040517f9767129800000000000000000000000000000000000000000000000000000000815260040160405180910390fd5b600e5442101561061e576040517fd02ce1d200000000000000000000000000000000000000000000000000000000815260040160405180910390fd5b5f600854600d5461062f9190610b91565b34116106e0576001600d546106449190610bd2565b3461064f9190610b91565b9050600d543461065f9190610b91565b60085f82825461066f9190610c05565b9250508190555060015f9054906101000a900473ffffffffffffffffffffffffffffffffffffffff1673ffffffffffffffffffffffffffffffffffffffff166108fc8290811502906040515f60405180830381858888f193505050501580156106da573d5f803e3d5ffd5b50610775565b600854600d546106f09190610b91565b34111561077457600854346107059190610bd2565b90505f60088190555060015f9054906101000a900473ffffffffffffffffffffffffffffffffffffffff1673ffffffffffffffffffffffffffffffffffffffff166108fc8290811502906040515f60405180830381858888f19350505050158015610772573d5f803e3d5ffd5b505b5b5f600f5f3373ffffffffffffffffffffffffffffffffffffffff1673ffffffffffffffffffffffffffffffffffffffff1681526020019081526020015f2054036107d357600160105f8282546107cb9190610bd2565b925050819055505b34600f5f3373ffffffffffffffffffffffffffffffffffffffff1673ffffffffffffffffffffffffffffffffffffffff1681526020019081526020015f205f82825461081f9190610bd2565b92505081905550600654600f5f3373ffffffffffffffffffffffffffffffffffffffff1673ffffffffffffffffffffffffffffffffffffffff1681526020019081526020015f20541115610929573360055f6101000a81548173ffffffffffffffffffffffffffffffffffffffff021916908373ffffffffffffffffffffffffffffffffffffffff160217905550600f5f3373ffffffffffffffffffffffffffffffffffffffff1673ffffffffffffffffffffffffffffffffffffffff1681526020019081526020015f20546006819055507f176a3512dc8ecaeaf1fbbebde43923d52651bd62a3e1cbcd015d27261cfd198c336040516109209190610b4b565b60405180910390a15b7f2dee2238abf506bc098494e4b1beabcf53c6d5cf94f32d8a601b4564254c1b0881604051610958919061097b565b60405180910390a150565b5f819050919050565b61097581610963565b82525050565b5f60208201905061098e5f83018461096c565b92915050565b5f80fd5b6109a181610963565b81146109ab575f80fd5b50565b5f813590506109bc81610998565b92915050565b5f73ffffffffffffffffffffffffffffffffffffffff82169050919050565b5f6109eb826109c2565b9050919050565b6109fb816109e1565b8114610a05575f80fd5b50565b5f81359050610a16816109f2565b92915050565b5f819050919050565b610a2e81610a1c565b8114610a38575f80fd5b50565b5f81359050610a4981610a25565b92915050565b5f805f60608486031215610a6657610a65610994565b5b5f610a73868287016109ae565b9350506020610a8486828701610a08565b9250506040610a9586828701610a3b565b9150509250925092565b5f805f805f805f60e0888a031215610aba57610ab9610994565b5b5f610ac78a828b01610a08565b9750506020610ad88a828b01610a3b565b9650506040610ae98a828b01610a3b565b9550506060610afa8a828b01610a3b565b9450506080610b0b8a828b01610a08565b93505060a0610b1c8a828b01610a3b565b92505060c0610b2d8a828b016109ae565b91505092959891949750929550565b610b45816109e1565b82525050565b5f602082019050610b5e5f830184610b3c565b92915050565b7f4e487b71000000000000000000000000000000000000000000000000000000005f52601160045260245ffd5b5f610b9b82610963565b9150610ba683610963565b9250828202610bb481610963565b91508282048414831517610bcb57610bca610b64565b5b5092915050565b5f610bdc82610963565b9150610be783610963565b9250828201905080821115610bff57610bfe610b64565b5b92915050565b5f610c0f82610963565b9150610c1a83610963565b9250828203905081811115610c3257610c31610b64565b5b9291505056fea26469706673582212205349e6da7e83bbe6245625bf0d8240db960e2564739768db2d0938530e0011d164736f6c63430008150033",
  "immutableReferences": {},
  "source": "pragma solidity >=0.4.22 <0.9.0;\n\nimport \"./SoulBound.sol\";\n\ncontract MatchingProgram {\n    uint public state;\n    address recipient;\n    bytes32 recipientName;\n    address sponsor;\n    bytes32 sponsorName;\n\n    address topDonor;\n    uint topDonatedAmount;\n\n    uint matchingAmount;\n    uint matchingAmountLeft;\n    bytes32 programName;\n    bytes32 programDescription;\n    bytes32 category;\n    address SBTOwnerAddress;\n\n\n    uint matchingRatio;\n    uint endTime;\n\n    mapping(address => uint) donors;\n    uint donorCount;\n\n\n\n    event DonatedEvent(uint donatedAmount);\n    event MatchingProgramStartedEvent(uint matchingAmount);\n    event NewTopDonorEvent(address donorAddress);\n\n    error NoAmountSent();\n    error PastInitialFundState();\n    error NoMatchingAmountSet();\n    error FundraiseEnded();\n    error FundraiseNotEnded();\n    error RatioLessThanOne();\n\n    struct Donation {\n        uint amount;\n    }\n\n    // Function to get the current count\n    function getState() public view returns (uint) {\n        return state;\n    }\n\n    function getMatchingAmountLeft() public view returns (uint) {\n        return matchingAmountLeft;\n    }\n\n    function getInitialMatchingAmount() public view returns (uint) {\n        return matchingAmount;\n    }\n\n    constructor(\n        address inputSBTOwner,\n        bytes32 inputCategory,\n        \n        bytes32 inputProgramName,\n        bytes32 inputProgramDescription,\n        address intendedRecipient,\n        bytes32 inputRecipientName,\n        uint inputEndTime\n    ) {\n        SBTOwnerAddress = inputSBTOwner;\n        category = inputCategory;\n        recipient = intendedRecipient;\n        recipientName = inputRecipientName;\n        programName = inputProgramName;\n        programDescription = inputProgramDescription;\n        endTime = inputEndTime;\n        state = 0;\n        donorCount = 0;\n    }\n\n    function init(\n        address inputSBTOwner,\n        bytes32 inputCategory,\n        bytes32 inputProgramName,\n        bytes32 inputProgramDescription,\n        address intendedRecipient,\n        bytes32 inputRecipientName,\n        uint inputEndTime\n    ) public {\n        SBTOwnerAddress = inputSBTOwner;\n        category = inputCategory;\n        recipient = intendedRecipient;\n        recipientName = inputRecipientName;\n        programName = inputProgramName;\n        programDescription = inputProgramDescription;\n        endTime = inputEndTime;\n        state = 0;\n        donorCount = 0;\n    }\n\n    function fundInitialMatchingAccount(uint ratio,address inputSponsor,bytes32 inputSponsorName) \n    external payable {\n        if (msg.value == 0) revert NoAmountSent();\n        if (state != 0) revert PastInitialFundState();\n        if (ratio <= 0) revert RatioLessThanOne();\n        if (block.timestamp < endTime) {\n            revert FundraiseEnded();\n        }\n        matchingAmountLeft = msg.value;\n        matchingAmount = msg.value;\n        matchingRatio = ratio;\n        sponsor = inputSponsor;\n        sponsorName = inputSponsorName;\n        emit MatchingProgramStartedEvent(matchingAmountLeft);\n        state = 1;\n    }\n\n    function donate() external payable {\n        // msg.value\n        if (state == 0) revert NoMatchingAmountSet();\n        if (block.timestamp < endTime) {\n            revert FundraiseEnded();\n        }\n        uint amountToSend = 0;\n        if (msg.value <= matchingRatio * matchingAmountLeft) {\n            amountToSend = msg.value * (matchingRatio + 1);\n            matchingAmountLeft -= msg.value * matchingRatio;\n            payable(recipient).transfer(amountToSend);\n        } else if (msg.value > matchingRatio * matchingAmountLeft) {\n            amountToSend = msg.value + matchingAmountLeft;\n            matchingAmountLeft = 0;\n            payable(recipient).transfer(amountToSend);\n        }\n        if (donors[msg.sender] == 0) {\n            donorCount += 1;\n        }\n        donors[msg.sender] += msg.value;\n        if (donors[msg.sender] > topDonatedAmount) {\n            topDonor = msg.sender;\n            topDonatedAmount = donors[msg.sender];\n            emit NewTopDonorEvent(msg.sender);\n        }\n\n        emit DonatedEvent(amountToSend);\n    }\n\n    function endFundRaise() external {\n        if (block.timestamp < endTime) {\n            revert FundraiseEnded();\n        }\n        // send SBT to top donor if exist\n        if (donorCount != 0){\n            \n            SoulBoundToken(SBTOwnerAddress).safeMint(topDonor);\n            \n        }\n        state = 2;\n    }\n\n    function refundMatchingAmount() external {\n        if (state < 2) {\n            revert FundraiseNotEnded();\n        }\n        payable(sponsor).transfer(matchingAmountLeft);\n    }\n}\n",
  "sourcePath": "/Users/Daniel/Documents/projects/ethDonate/contracts/MatchingProgram.sol",
  "compiler": {
    "name": "solc",
    "version": "0.8.21+commit.d9974bed.Emscripten.clang"
  },
  "schemaVersion": "3.4.16",
  "updatedAt": "2023-09-11T18:23:27.418Z",
  "devdoc": {
    "kind": "dev",
    "methods": {},
    "version": 1
  },
  "userdoc": {
    "kind": "user",
    "methods": {},
    "version": 1
  }
}