{
  "contractName": "SoulBoundToken",
  "abi": [
    {
      "inputs": [],
      "stateMutability": "nonpayable",
      "type": "constructor"
    },
    {
      "anonymous": false,
      "inputs": [
        {
          "indexed": true,
          "internalType": "address",
          "name": "owner",
          "type": "address"
        },
        {
          "indexed": true,
          "internalType": "address",
          "name": "approved",
          "type": "address"
        },
        {
          "indexed": true,
          "internalType": "uint256",
          "name": "tokenId",
          "type": "uint256"
        }
      ],
      "name": "Approval",
      "type": "event"
    },
    {
      "anonymous": false,
      "inputs": [
        {
          "indexed": true,
          "internalType": "address",
          "name": "owner",
          "type": "address"
        },
        {
          "indexed": true,
          "internalType": "address",
          "name": "operator",
          "type": "address"
        },
        {
          "indexed": false,
          "internalType": "bool",
          "name": "approved",
          "type": "bool"
        }
      ],
      "name": "ApprovalForAll",
      "type": "event"
    },
    {
      "anonymous": false,
      "inputs": [
        {
          "indexed": true,
          "internalType": "address",
          "name": "previousOwner",
          "type": "address"
        },
        {
          "indexed": true,
          "internalType": "address",
          "name": "newOwner",
          "type": "address"
        }
      ],
      "name": "OwnershipTransferred",
      "type": "event"
    },
    {
      "anonymous": false,
      "inputs": [
        {
          "indexed": true,
          "internalType": "address",
          "name": "from",
          "type": "address"
        },
        {
          "indexed": true,
          "internalType": "address",
          "name": "to",
          "type": "address"
        },
        {
          "indexed": true,
          "internalType": "uint256",
          "name": "tokenId",
          "type": "uint256"
        }
      ],
      "name": "Transfer",
      "type": "event"
    },
    {
      "inputs": [
        {
          "internalType": "address",
          "name": "to",
          "type": "address"
        },
        {
          "internalType": "uint256",
          "name": "tokenId",
          "type": "uint256"
        }
      ],
      "name": "approve",
      "outputs": [],
      "stateMutability": "nonpayable",
      "type": "function"
    },
    {
      "inputs": [
        {
          "internalType": "address",
          "name": "owner",
          "type": "address"
        }
      ],
      "name": "balanceOf",
      "outputs": [
        {
          "internalType": "uint256",
          "name": "",
          "type": "uint256"
        }
      ],
      "stateMutability": "view",
      "type": "function"
    },
    {
      "inputs": [
        {
          "internalType": "uint256",
          "name": "tokenId",
          "type": "uint256"
        }
      ],
      "name": "getApproved",
      "outputs": [
        {
          "internalType": "address",
          "name": "",
          "type": "address"
        }
      ],
      "stateMutability": "view",
      "type": "function"
    },
    {
      "inputs": [
        {
          "internalType": "address",
          "name": "owner",
          "type": "address"
        },
        {
          "internalType": "address",
          "name": "operator",
          "type": "address"
        }
      ],
      "name": "isApprovedForAll",
      "outputs": [
        {
          "internalType": "bool",
          "name": "",
          "type": "bool"
        }
      ],
      "stateMutability": "view",
      "type": "function"
    },
    {
      "inputs": [],
      "name": "name",
      "outputs": [
        {
          "internalType": "string",
          "name": "",
          "type": "string"
        }
      ],
      "stateMutability": "view",
      "type": "function"
    },
    {
      "inputs": [],
      "name": "owner",
      "outputs": [
        {
          "internalType": "address",
          "name": "",
          "type": "address"
        }
      ],
      "stateMutability": "view",
      "type": "function"
    },
    {
      "inputs": [
        {
          "internalType": "uint256",
          "name": "tokenId",
          "type": "uint256"
        }
      ],
      "name": "ownerOf",
      "outputs": [
        {
          "internalType": "address",
          "name": "",
          "type": "address"
        }
      ],
      "stateMutability": "view",
      "type": "function"
    },
    {
      "inputs": [],
      "name": "renounceOwnership",
      "outputs": [],
      "stateMutability": "nonpayable",
      "type": "function"
    },
    {
      "inputs": [
        {
          "internalType": "address",
          "name": "from",
          "type": "address"
        },
        {
          "internalType": "address",
          "name": "to",
          "type": "address"
        },
        {
          "internalType": "uint256",
          "name": "tokenId",
          "type": "uint256"
        }
      ],
      "name": "safeTransferFrom",
      "outputs": [],
      "stateMutability": "nonpayable",
      "type": "function"
    },
    {
      "inputs": [
        {
          "internalType": "address",
          "name": "from",
          "type": "address"
        },
        {
          "internalType": "address",
          "name": "to",
          "type": "address"
        },
        {
          "internalType": "uint256",
          "name": "tokenId",
          "type": "uint256"
        },
        {
          "internalType": "bytes",
          "name": "data",
          "type": "bytes"
        }
      ],
      "name": "safeTransferFrom",
      "outputs": [],
      "stateMutability": "nonpayable",
      "type": "function"
    },
    {
      "inputs": [
        {
          "internalType": "address",
          "name": "operator",
          "type": "address"
        },
        {
          "internalType": "bool",
          "name": "approved",
          "type": "bool"
        }
      ],
      "name": "setApprovalForAll",
      "outputs": [],
      "stateMutability": "nonpayable",
      "type": "function"
    },
    {
      "inputs": [
        {
          "internalType": "bytes4",
          "name": "interfaceId",
          "type": "bytes4"
        }
      ],
      "name": "supportsInterface",
      "outputs": [
        {
          "internalType": "bool",
          "name": "",
          "type": "bool"
        }
      ],
      "stateMutability": "view",
      "type": "function"
    },
    {
      "inputs": [],
      "name": "symbol",
      "outputs": [
        {
          "internalType": "string",
          "name": "",
          "type": "string"
        }
      ],
      "stateMutability": "view",
      "type": "function"
    },
    {
      "inputs": [
        {
          "internalType": "uint256",
          "name": "tokenId",
          "type": "uint256"
        }
      ],
      "name": "tokenURI",
      "outputs": [
        {
          "internalType": "string",
          "name": "",
          "type": "string"
        }
      ],
      "stateMutability": "view",
      "type": "function"
    },
    {
      "inputs": [
        {
          "internalType": "address",
          "name": "from",
          "type": "address"
        },
        {
          "internalType": "address",
          "name": "to",
          "type": "address"
        },
        {
          "internalType": "uint256",
          "name": "tokenId",
          "type": "uint256"
        }
      ],
      "name": "transferFrom",
      "outputs": [],
      "stateMutability": "nonpayable",
      "type": "function"
    },
    {
      "inputs": [
        {
          "internalType": "address",
          "name": "newOwner",
          "type": "address"
        }
      ],
      "name": "transferOwnership",
      "outputs": [],
      "stateMutability": "nonpayable",
      "type": "function"
    },
    {
      "inputs": [
        {
          "internalType": "address",
          "name": "to",
          "type": "address"
        }
      ],
      "name": "safeMint",
      "outputs": [],
      "stateMutability": "nonpayable",
      "type": "function"
    },
    {
      "inputs": [
        {
          "internalType": "uint256",
          "name": "tokenId",
          "type": "uint256"
        }
      ],
      "name": "burn",
      "outputs": [],
      "stateMutability": "nonpayable",
      "type": "function"
    }
  ],
  "bytecode": "0x608060405234801562000010575f80fd5b506040518060400160405280600e81526020017f536f756c426f756e64546f6b656e0000000000000000000000000000000000008152506040518060400160405280600381526020017f5342540000000000000000000000000000000000000000000000000000000000815250815f90816200008d9190620003f6565b5080600190816200009f9190620003f6565b505050620000c2620000b6620000c860201b60201c565b620000cf60201b60201c565b620004da565b5f33905090565b5f60065f9054906101000a900473ffffffffffffffffffffffffffffffffffffffff1690508160065f6101000a81548173ffffffffffffffffffffffffffffffffffffffff021916908373ffffffffffffffffffffffffffffffffffffffff1602179055508173ffffffffffffffffffffffffffffffffffffffff168173ffffffffffffffffffffffffffffffffffffffff167f8be0079c531659141344cd1fd0a4f28419497f9722a3daafe3b4186f6b6457e060405160405180910390a35050565b5f81519050919050565b7f4e487b71000000000000000000000000000000000000000000000000000000005f52604160045260245ffd5b7f4e487b71000000000000000000000000000000000000000000000000000000005f52602260045260245ffd5b5f60028204905060018216806200020e57607f821691505b602082108103620002245762000223620001c9565b5b50919050565b5f819050815f5260205f209050919050565b5f6020601f8301049050919050565b5f82821b905092915050565b5f60088302620002887fffffffffffffffffffffffffffffffffffffffffffffffffffffffffffffffff826200024b565b6200029486836200024b565b95508019841693508086168417925050509392505050565b5f819050919050565b5f819050919050565b5f620002de620002d8620002d284620002ac565b620002b5565b620002ac565b9050919050565b5f819050919050565b620002f983620002be565b620003116200030882620002e5565b84845462000257565b825550505050565b5f90565b6200032762000319565b62000334818484620002ee565b505050565b5b818110156200035b576200034f5f826200031d565b6001810190506200033a565b5050565b601f821115620003aa5762000374816200022a565b6200037f846200023c565b810160208510156200038f578190505b620003a76200039e856200023c565b83018262000339565b50505b505050565b5f82821c905092915050565b5f620003cc5f1984600802620003af565b1980831691505092915050565b5f620003e68383620003bb565b9150826002028217905092915050565b620004018262000192565b67ffffffffffffffff8111156200041d576200041c6200019c565b5b620004298254620001f6565b620004368282856200035f565b5f60209050601f8311600181146200046c575f841562000457578287015190505b620004638582620003d9565b865550620004d2565b601f1984166200047c866200022a565b5f5b82811015620004a5578489015182556001820191506020850194506020810190506200047e565b86831015620004c55784890151620004c1601f891682620003bb565b8355505b6001600288020188555050505b505050505050565b612a2780620004e85f395ff3fe608060405234801561000f575f80fd5b5060043610610114575f3560e01c806370a08231116100a0578063a22cb4651161006f578063a22cb465146102c8578063b88d4fde146102e4578063c87b56dd14610300578063e985e9c514610330578063f2fde38b1461036057610114565b806370a0823114610252578063715018a6146102825780638da5cb5b1461028c57806395d89b41146102aa57610114565b806323b872dd116100e757806323b872dd146101b257806340d097c3146101ce57806342842e0e146101ea57806342966c68146102065780636352211e1461022257610114565b806301ffc9a71461011857806306fdde0314610148578063081812fc14610166578063095ea7b314610196575b5f80fd5b610132600480360381019061012d9190611c0e565b61037c565b60405161013f9190611c53565b60405180910390f35b61015061045d565b60405161015d9190611cf6565b60405180910390f35b610180600480360381019061017b9190611d49565b6104ec565b60405161018d9190611db3565b60405180910390f35b6101b060048036038101906101ab9190611df6565b61052e565b005b6101cc60048036038101906101c79190611e34565b610644565b005b6101e860048036038101906101e39190611e84565b6106a4565b005b61020460048036038101906101ff9190611e34565b6106d1565b005b610220600480360381019061021b9190611d49565b6106f0565b005b61023c60048036038101906102379190611d49565b610772565b6040516102499190611db3565b60405180910390f35b61026c60048036038101906102679190611e84565b6107f6565b6040516102799190611ebe565b60405180910390f35b61028a6108aa565b005b6102946108bd565b6040516102a19190611db3565b60405180910390f35b6102b26108e5565b6040516102bf9190611cf6565b60405180910390f35b6102e260048036038101906102dd9190611f01565b610975565b005b6102fe60048036038101906102f9919061206b565b61098b565b005b61031a60048036038101906103159190611d49565b6109ed565b6040516103279190611cf6565b60405180910390f35b61034a600480360381019061034591906120eb565b610a52565b6040516103579190611c53565b60405180910390f35b61037a60048036038101906103759190611e84565b610ae0565b005b5f7f80ac58cd000000000000000000000000000000000000000000000000000000007bffffffffffffffffffffffffffffffffffffffffffffffffffffffff1916827bffffffffffffffffffffffffffffffffffffffffffffffffffffffff1916148061044657507f5b5e139f000000000000000000000000000000000000000000000000000000007bffffffffffffffffffffffffffffffffffffffffffffffffffffffff1916827bffffffffffffffffffffffffffffffffffffffffffffffffffffffff1916145b80610456575061045582610b62565b5b9050919050565b60605f805461046b90612156565b80601f016020809104026020016040519081016040528092919081815260200182805461049790612156565b80156104e25780601f106104b9576101008083540402835291602001916104e2565b820191905f5260205f20905b8154815290600101906020018083116104c557829003601f168201915b5050505050905090565b5f6104f682610bcb565b60045f8381526020019081526020015f205f9054906101000a900473ffffffffffffffffffffffffffffffffffffffff169050919050565b5f61053882610772565b90508073ffffffffffffffffffffffffffffffffffffffff168373ffffffffffffffffffffffffffffffffffffffff16036105a8576040517f08c379a000000000000000000000000000000000000000000000000000000000815260040161059f906121f6565b60405180910390fd5b8073ffffffffffffffffffffffffffffffffffffffff166105c7610c16565b73ffffffffffffffffffffffffffffffffffffffff1614806105f657506105f5816105f0610c16565b610a52565b5b610635576040517f08c379a000000000000000000000000000000000000000000000000000000000815260040161062c90612284565b60405180910390fd5b61063f8383610c1d565b505050565b61065561064f610c16565b82610cd3565b610694576040517f08c379a000000000000000000000000000000000000000000000000000000000815260040161068b90612312565b60405180910390fd5b61069f838383610d67565b505050565b6106ac611053565b5f6106b760076110d1565b90506106c360076110dd565b6106cd82826110f1565b5050565b6106eb83838360405180602001604052805f81525061098b565b505050565b3373ffffffffffffffffffffffffffffffffffffffff1661071082610772565b73ffffffffffffffffffffffffffffffffffffffff1614610766576040517f08c379a000000000000000000000000000000000000000000000000000000000815260040161075d906123a0565b60405180910390fd5b61076f8161110e565b50565b5f8061077d8361111a565b90505f73ffffffffffffffffffffffffffffffffffffffff168173ffffffffffffffffffffffffffffffffffffffff16036107ed576040517f08c379a00000000000000000000000000000000000000000000000000000000081526004016107e490612408565b60405180910390fd5b80915050919050565b5f8073ffffffffffffffffffffffffffffffffffffffff168273ffffffffffffffffffffffffffffffffffffffff1603610865576040517f08c379a000000000000000000000000000000000000000000000000000000000815260040161085c90612496565b60405180910390fd5b60035f8373ffffffffffffffffffffffffffffffffffffffff1673ffffffffffffffffffffffffffffffffffffffff1681526020019081526020015f20549050919050565b6108b2611053565b6108bb5f611153565b565b5f60065f9054906101000a900473ffffffffffffffffffffffffffffffffffffffff16905090565b6060600180546108f490612156565b80601f016020809104026020016040519081016040528092919081815260200182805461092090612156565b801561096b5780601f106109425761010080835404028352916020019161096b565b820191905f5260205f20905b81548152906001019060200180831161094e57829003601f168201915b5050505050905090565b610987610980610c16565b8383611216565b5050565b61099c610996610c16565b83610cd3565b6109db576040517f08c379a00000000000000000000000000000000000000000000000000000000081526004016109d290612312565b60405180910390fd5b6109e78484848461137d565b50505050565b60606109f882610bcb565b5f610a016113d9565b90505f815111610a1f5760405180602001604052805f815250610a4a565b80610a29846113ef565b604051602001610a3a9291906124ee565b6040516020818303038152906040525b915050919050565b5f60055f8473ffffffffffffffffffffffffffffffffffffffff1673ffffffffffffffffffffffffffffffffffffffff1681526020019081526020015f205f8373ffffffffffffffffffffffffffffffffffffffff1673ffffffffffffffffffffffffffffffffffffffff1681526020019081526020015f205f9054906101000a900460ff16905092915050565b610ae8611053565b5f73ffffffffffffffffffffffffffffffffffffffff168173ffffffffffffffffffffffffffffffffffffffff1603610b56576040517f08c379a0000000000000000000000000000000000000000000000000000000008152600401610b4d90612581565b60405180910390fd5b610b5f81611153565b50565b5f7f01ffc9a7000000000000000000000000000000000000000000000000000000007bffffffffffffffffffffffffffffffffffffffffffffffffffffffff1916827bffffffffffffffffffffffffffffffffffffffffffffffffffffffff1916149050919050565b610bd4816114b9565b610c13576040517f08c379a0000000000000000000000000000000000000000000000000000000008152600401610c0a90612408565b60405180910390fd5b50565b5f33905090565b8160045f8381526020019081526020015f205f6101000a81548173ffffffffffffffffffffffffffffffffffffffff021916908373ffffffffffffffffffffffffffffffffffffffff160217905550808273ffffffffffffffffffffffffffffffffffffffff16610c8d83610772565b73ffffffffffffffffffffffffffffffffffffffff167f8c5be1e5ebec7d5bd14f71427d1e84f3dd0314c0f7b2291e5b200ac8c7c3b92560405160405180910390a45050565b5f80610cde83610772565b90508073ffffffffffffffffffffffffffffffffffffffff168473ffffffffffffffffffffffffffffffffffffffff161480610d205750610d1f8185610a52565b5b80610d5e57508373ffffffffffffffffffffffffffffffffffffffff16610d46846104ec565b73ffffffffffffffffffffffffffffffffffffffff16145b91505092915050565b8273ffffffffffffffffffffffffffffffffffffffff16610d8782610772565b73ffffffffffffffffffffffffffffffffffffffff1614610ddd576040517f08c379a0000000000000000000000000000000000000000000000000000000008152600401610dd49061260f565b60405180910390fd5b5f73ffffffffffffffffffffffffffffffffffffffff168273ffffffffffffffffffffffffffffffffffffffff1603610e4b576040517f08c379a0000000000000000000000000000000000000000000000000000000008152600401610e429061269d565b60405180910390fd5b610e5883838360016114f9565b8273ffffffffffffffffffffffffffffffffffffffff16610e7882610772565b73ffffffffffffffffffffffffffffffffffffffff1614610ece576040517f08c379a0000000000000000000000000000000000000000000000000000000008152600401610ec59061260f565b60405180910390fd5b60045f8281526020019081526020015f205f6101000a81549073ffffffffffffffffffffffffffffffffffffffff0219169055600160035f8573ffffffffffffffffffffffffffffffffffffffff1673ffffffffffffffffffffffffffffffffffffffff1681526020019081526020015f205f8282540392505081905550600160035f8473ffffffffffffffffffffffffffffffffffffffff1673ffffffffffffffffffffffffffffffffffffffff1681526020019081526020015f205f82825401925050819055508160025f8381526020019081526020015f205f6101000a81548173ffffffffffffffffffffffffffffffffffffffff021916908373ffffffffffffffffffffffffffffffffffffffff160217905550808273ffffffffffffffffffffffffffffffffffffffff168473ffffffffffffffffffffffffffffffffffffffff167fddf252ad1be2c89b69c2b068fc378daa952ba7f163c4a11628f55a4df523b3ef60405160405180910390a461104e83838360016114ff565b505050565b61105b610c16565b73ffffffffffffffffffffffffffffffffffffffff166110796108bd565b73ffffffffffffffffffffffffffffffffffffffff16146110cf576040517f08c379a00000000000000000000000000000000000000000000000000000000081526004016110c690612705565b60405180910390fd5b565b5f815f01549050919050565b6001815f015f828254019250508190555050565b61110a828260405180602001604052805f815250611505565b5050565b6111178161155f565b50565b5f60025f8381526020019081526020015f205f9054906101000a900473ffffffffffffffffffffffffffffffffffffffff169050919050565b5f60065f9054906101000a900473ffffffffffffffffffffffffffffffffffffffff1690508160065f6101000a81548173ffffffffffffffffffffffffffffffffffffffff021916908373ffffffffffffffffffffffffffffffffffffffff1602179055508173ffffffffffffffffffffffffffffffffffffffff168173ffffffffffffffffffffffffffffffffffffffff167f8be0079c531659141344cd1fd0a4f28419497f9722a3daafe3b4186f6b6457e060405160405180910390a35050565b8173ffffffffffffffffffffffffffffffffffffffff168373ffffffffffffffffffffffffffffffffffffffff1603611284576040517f08c379a000000000000000000000000000000000000000000000000000000000815260040161127b9061276d565b60405180910390fd5b8060055f8573ffffffffffffffffffffffffffffffffffffffff1673ffffffffffffffffffffffffffffffffffffffff1681526020019081526020015f205f8473ffffffffffffffffffffffffffffffffffffffff1673ffffffffffffffffffffffffffffffffffffffff1681526020019081526020015f205f6101000a81548160ff0219169083151502179055508173ffffffffffffffffffffffffffffffffffffffff168373ffffffffffffffffffffffffffffffffffffffff167f17307eab39ab6107e8899845ad3d59bd9653f200f220920489ca2b5937696c31836040516113709190611c53565b60405180910390a3505050565b611388848484610d67565b611394848484846116a0565b6113d3576040517f08c379a00000000000000000000000000000000000000000000000000000000081526004016113ca906127fb565b60405180910390fd5b50505050565b606060405180602001604052805f815250905090565b60605f60016113fd84611822565b0190505f8167ffffffffffffffff81111561141b5761141a611f47565b5b6040519080825280601f01601f19166020018201604052801561144d5781602001600182028036833780820191505090505b5090505f82602001820190505b6001156114ae578080600190039150507f3031323334353637383961626364656600000000000000000000000000000000600a86061a8153600a85816114a3576114a2612819565b5b0494505f850361145a575b819350505050919050565b5f8073ffffffffffffffffffffffffffffffffffffffff166114da8361111a565b73ffffffffffffffffffffffffffffffffffffffff1614159050919050565b50505050565b50505050565b61150f8383611973565b61151b5f8484846116a0565b61155a576040517f08c379a0000000000000000000000000000000000000000000000000000000008152600401611551906127fb565b60405180910390fd5b505050565b5f61156982610772565b9050611578815f8460016114f9565b61158182610772565b905060045f8381526020019081526020015f205f6101000a81549073ffffffffffffffffffffffffffffffffffffffff0219169055600160035f8373ffffffffffffffffffffffffffffffffffffffff1673ffffffffffffffffffffffffffffffffffffffff1681526020019081526020015f205f828254039250508190555060025f8381526020019081526020015f205f6101000a81549073ffffffffffffffffffffffffffffffffffffffff0219169055815f73ffffffffffffffffffffffffffffffffffffffff168273ffffffffffffffffffffffffffffffffffffffff167fddf252ad1be2c89b69c2b068fc378daa952ba7f163c4a11628f55a4df523b3ef60405160405180910390a461169c815f8460016114ff565b5050565b5f6116c08473ffffffffffffffffffffffffffffffffffffffff16611b86565b15611815578373ffffffffffffffffffffffffffffffffffffffff1663150b7a026116e9610c16565b8786866040518563ffffffff1660e01b815260040161170b9493929190612898565b6020604051808303815f875af192505050801561174657506040513d601f19601f8201168201806040525081019061174391906128f6565b60015b6117c5573d805f8114611774576040519150601f19603f3d011682016040523d82523d5f602084013e611779565b606091505b505f8151036117bd576040517f08c379a00000000000000000000000000000000000000000000000000000000081526004016117b4906127fb565b60405180910390fd5b805181602001fd5b63150b7a0260e01b7bffffffffffffffffffffffffffffffffffffffffffffffffffffffff1916817bffffffffffffffffffffffffffffffffffffffffffffffffffffffff19161491505061181a565b600190505b949350505050565b5f805f90507a184f03e93ff9f4daa797ed6e38ed64bf6a1f010000000000000000831061187e577a184f03e93ff9f4daa797ed6e38ed64bf6a1f010000000000000000838161187457611873612819565b5b0492506040810190505b6d04ee2d6d415b85acef810000000083106118bb576d04ee2d6d415b85acef810000000083816118b1576118b0612819565b5b0492506020810190505b662386f26fc1000083106118ea57662386f26fc1000083816118e0576118df612819565b5b0492506010810190505b6305f5e1008310611913576305f5e100838161190957611908612819565b5b0492506008810190505b612710831061193857612710838161192e5761192d612819565b5b0492506004810190505b6064831061195b576064838161195157611950612819565b5b0492506002810190505b600a831061196a576001810190505b80915050919050565b5f73ffffffffffffffffffffffffffffffffffffffff168273ffffffffffffffffffffffffffffffffffffffff16036119e1576040517f08c379a00000000000000000000000000000000000000000000000000000000081526004016119d89061296b565b60405180910390fd5b6119ea816114b9565b15611a2a576040517f08c379a0000000000000000000000000000000000000000000000000000000008152600401611a21906129d3565b60405180910390fd5b611a375f838360016114f9565b611a40816114b9565b15611a80576040517f08c379a0000000000000000000000000000000000000000000000000000000008152600401611a77906129d3565b60405180910390fd5b600160035f8473ffffffffffffffffffffffffffffffffffffffff1673ffffffffffffffffffffffffffffffffffffffff1681526020019081526020015f205f82825401925050819055508160025f8381526020019081526020015f205f6101000a81548173ffffffffffffffffffffffffffffffffffffffff021916908373ffffffffffffffffffffffffffffffffffffffff160217905550808273ffffffffffffffffffffffffffffffffffffffff165f73ffffffffffffffffffffffffffffffffffffffff167fddf252ad1be2c89b69c2b068fc378daa952ba7f163c4a11628f55a4df523b3ef60405160405180910390a4611b825f838360016114ff565b5050565b5f808273ffffffffffffffffffffffffffffffffffffffff163b119050919050565b5f604051905090565b5f80fd5b5f80fd5b5f7fffffffff0000000000000000000000000000000000000000000000000000000082169050919050565b611bed81611bb9565b8114611bf7575f80fd5b50565b5f81359050611c0881611be4565b92915050565b5f60208284031215611c2357611c22611bb1565b5b5f611c3084828501611bfa565b91505092915050565b5f8115159050919050565b611c4d81611c39565b82525050565b5f602082019050611c665f830184611c44565b92915050565b5f81519050919050565b5f82825260208201905092915050565b5f5b83811015611ca3578082015181840152602081019050611c88565b5f8484015250505050565b5f601f19601f8301169050919050565b5f611cc882611c6c565b611cd28185611c76565b9350611ce2818560208601611c86565b611ceb81611cae565b840191505092915050565b5f6020820190508181035f830152611d0e8184611cbe565b905092915050565b5f819050919050565b611d2881611d16565b8114611d32575f80fd5b50565b5f81359050611d4381611d1f565b92915050565b5f60208284031215611d5e57611d5d611bb1565b5b5f611d6b84828501611d35565b91505092915050565b5f73ffffffffffffffffffffffffffffffffffffffff82169050919050565b5f611d9d82611d74565b9050919050565b611dad81611d93565b82525050565b5f602082019050611dc65f830184611da4565b92915050565b611dd581611d93565b8114611ddf575f80fd5b50565b5f81359050611df081611dcc565b92915050565b5f8060408385031215611e0c57611e0b611bb1565b5b5f611e1985828601611de2565b9250506020611e2a85828601611d35565b9150509250929050565b5f805f60608486031215611e4b57611e4a611bb1565b5b5f611e5886828701611de2565b9350506020611e6986828701611de2565b9250506040611e7a86828701611d35565b9150509250925092565b5f60208284031215611e9957611e98611bb1565b5b5f611ea684828501611de2565b91505092915050565b611eb881611d16565b82525050565b5f602082019050611ed15f830184611eaf565b92915050565b611ee081611c39565b8114611eea575f80fd5b50565b5f81359050611efb81611ed7565b92915050565b5f8060408385031215611f1757611f16611bb1565b5b5f611f2485828601611de2565b9250506020611f3585828601611eed565b9150509250929050565b5f80fd5b5f80fd5b7f4e487b71000000000000000000000000000000000000000000000000000000005f52604160045260245ffd5b611f7d82611cae565b810181811067ffffffffffffffff82111715611f9c57611f9b611f47565b5b80604052505050565b5f611fae611ba8565b9050611fba8282611f74565b919050565b5f67ffffffffffffffff821115611fd957611fd8611f47565b5b611fe282611cae565b9050602081019050919050565b828183375f83830152505050565b5f61200f61200a84611fbf565b611fa5565b90508281526020810184848401111561202b5761202a611f43565b5b612036848285611fef565b509392505050565b5f82601f83011261205257612051611f3f565b5b8135612062848260208601611ffd565b91505092915050565b5f805f806080858703121561208357612082611bb1565b5b5f61209087828801611de2565b94505060206120a187828801611de2565b93505060406120b287828801611d35565b925050606085013567ffffffffffffffff8111156120d3576120d2611bb5565b5b6120df8782880161203e565b91505092959194509250565b5f806040838503121561210157612100611bb1565b5b5f61210e85828601611de2565b925050602061211f85828601611de2565b9150509250929050565b7f4e487b71000000000000000000000000000000000000000000000000000000005f52602260045260245ffd5b5f600282049050600182168061216d57607f821691505b6020821081036121805761217f612129565b5b50919050565b7f4552433732313a20617070726f76616c20746f2063757272656e74206f776e655f8201527f7200000000000000000000000000000000000000000000000000000000000000602082015250565b5f6121e0602183611c76565b91506121eb82612186565b604082019050919050565b5f6020820190508181035f83015261220d816121d4565b9050919050565b7f4552433732313a20617070726f76652063616c6c6572206973206e6f7420746f5f8201527f6b656e206f776e6572206f7220617070726f76656420666f7220616c6c000000602082015250565b5f61226e603d83611c76565b915061227982612214565b604082019050919050565b5f6020820190508181035f83015261229b81612262565b9050919050565b7f4552433732313a2063616c6c6572206973206e6f7420746f6b656e206f776e655f8201527f72206f7220617070726f76656400000000000000000000000000000000000000602082015250565b5f6122fc602d83611c76565b9150612307826122a2565b604082019050919050565b5f6020820190508181035f830152612329816122f0565b9050919050565b7f4f6e6c7920746865206f776e6572206f662074686520746f6b656e2063616e205f8201527f6275726e2069742e000000000000000000000000000000000000000000000000602082015250565b5f61238a602883611c76565b915061239582612330565b604082019050919050565b5f6020820190508181035f8301526123b78161237e565b9050919050565b7f4552433732313a20696e76616c696420746f6b656e20494400000000000000005f82015250565b5f6123f2601883611c76565b91506123fd826123be565b602082019050919050565b5f6020820190508181035f83015261241f816123e6565b9050919050565b7f4552433732313a2061646472657373207a65726f206973206e6f7420612076615f8201527f6c6964206f776e65720000000000000000000000000000000000000000000000602082015250565b5f612480602983611c76565b915061248b82612426565b604082019050919050565b5f6020820190508181035f8301526124ad81612474565b9050919050565b5f81905092915050565b5f6124c882611c6c565b6124d281856124b4565b93506124e2818560208601611c86565b80840191505092915050565b5f6124f982856124be565b915061250582846124be565b91508190509392505050565b7f4f776e61626c653a206e6577206f776e657220697320746865207a65726f20615f8201527f6464726573730000000000000000000000000000000000000000000000000000602082015250565b5f61256b602683611c76565b915061257682612511565b604082019050919050565b5f6020820190508181035f8301526125988161255f565b9050919050565b7f4552433732313a207472616e736665722066726f6d20696e636f7272656374205f8201527f6f776e6572000000000000000000000000000000000000000000000000000000602082015250565b5f6125f9602583611c76565b91506126048261259f565b604082019050919050565b5f6020820190508181035f830152612626816125ed565b9050919050565b7f4552433732313a207472616e7366657220746f20746865207a65726f206164645f8201527f7265737300000000000000000000000000000000000000000000000000000000602082015250565b5f612687602483611c76565b91506126928261262d565b604082019050919050565b5f6020820190508181035f8301526126b48161267b565b9050919050565b7f4f776e61626c653a2063616c6c6572206973206e6f7420746865206f776e65725f82015250565b5f6126ef602083611c76565b91506126fa826126bb565b602082019050919050565b5f6020820190508181035f83015261271c816126e3565b9050919050565b7f4552433732313a20617070726f766520746f2063616c6c6572000000000000005f82015250565b5f612757601983611c76565b915061276282612723565b602082019050919050565b5f6020820190508181035f8301526127848161274b565b9050919050565b7f4552433732313a207472616e7366657220746f206e6f6e2045524337323152655f8201527f63656976657220696d706c656d656e7465720000000000000000000000000000602082015250565b5f6127e5603283611c76565b91506127f08261278b565b604082019050919050565b5f6020820190508181035f830152612812816127d9565b9050919050565b7f4e487b71000000000000000000000000000000000000000000000000000000005f52601260045260245ffd5b5f81519050919050565b5f82825260208201905092915050565b5f61286a82612846565b6128748185612850565b9350612884818560208601611c86565b61288d81611cae565b840191505092915050565b5f6080820190506128ab5f830187611da4565b6128b86020830186611da4565b6128c56040830185611eaf565b81810360608301526128d78184612860565b905095945050505050565b5f815190506128f081611be4565b92915050565b5f6020828403121561290b5761290a611bb1565b5b5f612918848285016128e2565b91505092915050565b7f4552433732313a206d696e7420746f20746865207a65726f20616464726573735f82015250565b5f612955602083611c76565b915061296082612921565b602082019050919050565b5f6020820190508181035f83015261298281612949565b9050919050565b7f4552433732313a20746f6b656e20616c7265616479206d696e746564000000005f82015250565b5f6129bd601c83611c76565b91506129c882612989565b602082019050919050565b5f6020820190508181035f8301526129ea816129b1565b905091905056fea26469706673582212206ccac405d8062654e00fbbc545995426b109558eff78ea0fc87b6f99206e83c464736f6c63430008150033",
  "immutableReferences": {},
  "source": "// SPDX-License-Identifier: MIT\npragma solidity ^0.8.7;\n\nimport \"@openzeppelin/contracts/token/ERC721/ERC721.sol\";\nimport \"@openzeppelin/contracts/utils/Counters.sol\";\nimport \"@openzeppelin/contracts/access/Ownable.sol\";\n\ncontract SoulBoundToken is ERC721, Ownable {\n    using Counters for Counters.Counter;\n\n    Counters.Counter private _tokenIdCounter;\n\n    constructor() ERC721(\"SoulBoundToken\", \"SBT\") {}\n\n    function safeMint(address to) public onlyOwner {\n        uint256 tokenId = _tokenIdCounter.current();\n        _tokenIdCounter.increment();\n        _safeMint(to, tokenId);\n    }\n\n    function burn(uint256 tokenId) external {\n        require(ownerOf(tokenId) == msg.sender, \"Only the owner of the token can burn it.\");\n        _burn(tokenId);\n    }\n\n    function _beforeTokenTransfer(address from, address to, uint256) pure internal {\n        require(from == address(0) || to == address(0), \"This a Soulbound token. It cannot be transferred. Itcan only be burned by the token owner.\");\n    }\n\n    function _burn(uint256 tokenId) internal override(ERC721) {\n        super._burn(tokenId);\n    }\n}",
  "sourcePath": "/Users/Daniel/Documents/projects/ethDonate/contracts/SoulBound.sol",
  "compiler": {
    "name": "solc",
    "version": "0.8.21+commit.d9974bed.Emscripten.clang"
  },
  "schemaVersion": "3.4.16",
  "updatedAt": "2023-09-11T18:23:27.431Z",
  "devdoc": {
    "events": {
      "Approval(address,address,uint256)": {
        "details": "Emitted when `owner` enables `approved` to manage the `tokenId` token."
      },
      "ApprovalForAll(address,address,bool)": {
        "details": "Emitted when `owner` enables or disables (`approved`) `operator` to manage all of its assets."
      },
      "Transfer(address,address,uint256)": {
        "details": "Emitted when `tokenId` token is transferred from `from` to `to`."
      }
    },
    "kind": "dev",
    "methods": {
      "approve(address,uint256)": {
        "details": "See {IERC721-approve}."
      },
      "balanceOf(address)": {
        "details": "See {IERC721-balanceOf}."
      },
      "getApproved(uint256)": {
        "details": "See {IERC721-getApproved}."
      },
      "isApprovedForAll(address,address)": {
        "details": "See {IERC721-isApprovedForAll}."
      },
      "name()": {
        "details": "See {IERC721Metadata-name}."
      },
      "owner()": {
        "details": "Returns the address of the current owner."
      },
      "ownerOf(uint256)": {
        "details": "See {IERC721-ownerOf}."
      },
      "renounceOwnership()": {
        "details": "Leaves the contract without owner. It will not be possible to call `onlyOwner` functions. Can only be called by the current owner. NOTE: Renouncing ownership will leave the contract without an owner, thereby disabling any functionality that is only available to the owner."
      },
      "safeTransferFrom(address,address,uint256)": {
        "details": "See {IERC721-safeTransferFrom}."
      },
      "safeTransferFrom(address,address,uint256,bytes)": {
        "details": "See {IERC721-safeTransferFrom}."
      },
      "setApprovalForAll(address,bool)": {
        "details": "See {IERC721-setApprovalForAll}."
      },
      "supportsInterface(bytes4)": {
        "details": "See {IERC165-supportsInterface}."
      },
      "symbol()": {
        "details": "See {IERC721Metadata-symbol}."
      },
      "tokenURI(uint256)": {
        "details": "See {IERC721Metadata-tokenURI}."
      },
      "transferFrom(address,address,uint256)": {
        "details": "See {IERC721-transferFrom}."
      },
      "transferOwnership(address)": {
        "details": "Transfers ownership of the contract to a new account (`newOwner`). Can only be called by the current owner."
      }
    },
    "version": 1
  },
  "userdoc": {
    "kind": "user",
    "methods": {},
    "version": 1
  }
}