{
  "contractName": "MatchingProgram",
  "abi": [
    {
      "inputs": [
        {
          "internalType": "bytes32",
          "name": "inputProgramName",
          "type": "bytes32"
        },
        {
          "internalType": "bytes32",
          "name": "inputProgramDescription",
          "type": "bytes32"
        },
        {
          "internalType": "address",
          "name": "intendedRecipient",
          "type": "address"
        },
        {
          "internalType": "bytes32",
          "name": "inputRecipientName",
          "type": "bytes32"
        },
        {
          "internalType": "address",
          "name": "inputSponsor",
          "type": "address"
        },
        {
          "internalType": "bytes32",
          "name": "inputSponsorName",
          "type": "bytes32"
        },
        {
          "internalType": "uint256",
          "name": "inputEndTime",
          "type": "uint256"
        }
      ],
      "stateMutability": "nonpayable",
      "type": "constructor"
    },
    {
      "inputs": [],
      "name": "FundraiseEnded",
      "type": "error"
    },
    {
      "inputs": [],
      "name": "FundraiseNotEnded",
      "type": "error"
    },
    {
      "inputs": [],
      "name": "NoAmountSent",
      "type": "error"
    },
    {
      "inputs": [],
      "name": "NoMatchingAmountSet",
      "type": "error"
    },
    {
      "inputs": [],
      "name": "PastInitialFundState",
      "type": "error"
    },
    {
      "inputs": [],
      "name": "RatioLessThanOne",
      "type": "error"
    },
    {
      "anonymous": false,
      "inputs": [
        {
          "indexed": false,
          "internalType": "uint256",
          "name": "donatedAmount",
          "type": "uint256"
        }
      ],
      "name": "DonatedEvent",
      "type": "event"
    },
    {
      "anonymous": false,
      "inputs": [
        {
          "indexed": false,
          "internalType": "uint256",
          "name": "matchingAmount",
          "type": "uint256"
        }
      ],
      "name": "MatchingProgramStartedEvent",
      "type": "event"
    },
    {
      "anonymous": false,
      "inputs": [
        {
          "indexed": false,
          "internalType": "address",
          "name": "donorAddress",
          "type": "address"
        }
      ],
      "name": "NewTopDonorEvent",
      "type": "event"
    },
    {
      "inputs": [],
      "name": "state",
      "outputs": [
        {
          "internalType": "uint256",
          "name": "",
          "type": "uint256"
        }
      ],
      "stateMutability": "view",
      "type": "function"
    },
    {
      "inputs": [],
      "name": "getState",
      "outputs": [
        {
          "internalType": "uint256",
          "name": "",
          "type": "uint256"
        }
      ],
      "stateMutability": "view",
      "type": "function"
    },
    {
      "inputs": [],
      "name": "getMatchingAmountLeft",
      "outputs": [
        {
          "internalType": "uint256",
          "name": "",
          "type": "uint256"
        }
      ],
      "stateMutability": "view",
      "type": "function"
    },
    {
      "inputs": [],
      "name": "getInitialMatchingAmount",
      "outputs": [
        {
          "internalType": "uint256",
          "name": "",
          "type": "uint256"
        }
      ],
      "stateMutability": "view",
      "type": "function"
    },
    {
      "inputs": [
        {
          "internalType": "bytes32",
          "name": "inputProgramName",
          "type": "bytes32"
        },
        {
          "internalType": "bytes32",
          "name": "inputProgramDescription",
          "type": "bytes32"
        },
        {
          "internalType": "address",
          "name": "intendedRecipient",
          "type": "address"
        },
        {
          "internalType": "bytes32",
          "name": "inputRecipientName",
          "type": "bytes32"
        },
        {
          "internalType": "address",
          "name": "inputSponsor",
          "type": "address"
        },
        {
          "internalType": "bytes32",
          "name": "inputSponsorName",
          "type": "bytes32"
        },
        {
          "internalType": "uint256",
          "name": "inputEndTime",
          "type": "uint256"
        }
      ],
      "name": "init",
      "outputs": [],
      "stateMutability": "nonpayable",
      "type": "function"
    },
    {
      "inputs": [
        {
          "internalType": "uint256",
          "name": "ratio",
          "type": "uint256"
        }
      ],
      "name": "fundInitialMatchingAccount",
      "outputs": [],
      "stateMutability": "payable",
      "type": "function"
    },
    {
      "inputs": [],
      "name": "donate",
      "outputs": [],
      "stateMutability": "payable",
      "type": "function"
    },
    {
      "inputs": [],
      "name": "endFundRaise",
      "outputs": [],
      "stateMutability": "nonpayable",
      "type": "function"
    },
    {
      "inputs": [],
      "name": "refundMatchingAmount",
      "outputs": [],
      "stateMutability": "nonpayable",
      "type": "function"
    }
  ],
  "bytecode": "0x608060405234801562000010575f80fd5b5060405162000dd238038062000dd28339818101604052810190620000369190620001c8565b8460015f6101000a81548173ffffffffffffffffffffffffffffffffffffffff021916908373ffffffffffffffffffffffffffffffffffffffff160217905550836002819055508260035f6101000a81548173ffffffffffffffffffffffffffffffffffffffff021916908373ffffffffffffffffffffffffffffffffffffffff160217905550816004819055508660098190555085600a8190555080600c819055505f80819055505f600e819055505050505050505062000276565b5f80fd5b5f819050919050565b6200010b81620000f7565b811462000116575f80fd5b50565b5f81519050620001298162000100565b92915050565b5f73ffffffffffffffffffffffffffffffffffffffff82169050919050565b5f6200015a826200012f565b9050919050565b6200016c816200014e565b811462000177575f80fd5b50565b5f815190506200018a8162000161565b92915050565b5f819050919050565b620001a48162000190565b8114620001af575f80fd5b50565b5f81519050620001c28162000199565b92915050565b5f805f805f805f60e0888a031215620001e657620001e5620000f3565b5b5f620001f58a828b0162000119565b9750506020620002088a828b0162000119565b96505060406200021b8a828b016200017a565b95505060606200022e8a828b0162000119565b9450506080620002418a828b016200017a565b93505060a0620002548a828b0162000119565b92505060c0620002678a828b01620001b2565b91505092959891949750929550565b610b4e80620002845f395ff3fe608060405260043610610085575f3560e01c8063889d3b2c11610058578063889d3b2c1461010f5780639404cabb14610139578063b5ab66b31461014f578063c19d93fb14610177578063ed88c68e146101a157610085565b80631865c57d1461008957806319d95163146100b3578063764228db146100c95780638550f48d146100e5575b5f80fd5b348015610094575f80fd5b5061009d6101ab565b6040516100aa9190610880565b60405180910390f35b3480156100be575f80fd5b506100c76101b3565b005b6100e360048036038101906100de91906108c7565b610258565b005b3480156100f0575f80fd5b506100f9610398565b6040516101069190610880565b60405180910390f35b34801561011a575f80fd5b506101236103a1565b6040516101309190610880565b60405180910390f35b348015610144575f80fd5b5061014d6103aa565b005b34801561015a575f80fd5b506101756004803603810190610170919061097f565b6103ef565b005b348015610182575f80fd5b5061018b6104a8565b6040516101989190610880565b60405180910390f35b6101a96104ad565b005b5f8054905090565b60025f5410156101ef576040517f554654bb00000000000000000000000000000000000000000000000000000000815260040160405180910390fd5b60035f9054906101000a900473ffffffffffffffffffffffffffffffffffffffff1673ffffffffffffffffffffffffffffffffffffffff166108fc60085490811502906040515f60405180830381858888f19350505050158015610255573d5f803e3d5ffd5b50565b5f3403610291576040517f4518146e00000000000000000000000000000000000000000000000000000000815260040160405180910390fd5b5f8054146102cb576040517f819dd98700000000000000000000000000000000000000000000000000000000815260040160405180910390fd5b5f8111610304576040517f03b1d45000000000000000000000000000000000000000000000000000000000815260040160405180910390fd5b600c54421015610340576040517fd02ce1d200000000000000000000000000000000000000000000000000000000815260040160405180910390fd5b346008819055503460078190555080600b819055507f4252cea3513ce29b45f3d459bada8ec0d6626baf3dbfe1a8538f7ca2d85aefbd6008546040516103869190610880565b60405180910390a160015f8190555050565b5f600754905090565b5f600854905090565b600c544210156103e6576040517fd02ce1d200000000000000000000000000000000000000000000000000000000815260040160405180910390fd5b60025f81905550565b8460015f6101000a81548173ffffffffffffffffffffffffffffffffffffffff021916908373ffffffffffffffffffffffffffffffffffffffff160217905550836002819055508260035f6101000a81548173ffffffffffffffffffffffffffffffffffffffff021916908373ffffffffffffffffffffffffffffffffffffffff160217905550816004819055508660098190555085600a8190555080600c819055505f80819055505f600e8190555050505050505050565b5f5481565b5f8054036104e7576040517f9767129800000000000000000000000000000000000000000000000000000000815260040160405180910390fd5b600c54421015610523576040517fd02ce1d200000000000000000000000000000000000000000000000000000000815260040160405180910390fd5b5f600854600b546105349190610a49565b34116105e5576001600b546105499190610a8a565b346105549190610a49565b9050600b54346105649190610a49565b60085f8282546105749190610abd565b9250508190555060015f9054906101000a900473ffffffffffffffffffffffffffffffffffffffff1673ffffffffffffffffffffffffffffffffffffffff166108fc8290811502906040515f60405180830381858888f193505050501580156105df573d5f803e3d5ffd5b5061067a565b600854600b546105f59190610a49565b341115610679576008543461060a9190610a8a565b90505f60088190555060015f9054906101000a900473ffffffffffffffffffffffffffffffffffffffff1673ffffffffffffffffffffffffffffffffffffffff166108fc8290811502906040515f60405180830381858888f19350505050158015610677573d5f803e3d5ffd5b505b5b5f600d5f3373ffffffffffffffffffffffffffffffffffffffff1673ffffffffffffffffffffffffffffffffffffffff1681526020019081526020015f2054036106d8576001600e5f8282546106d09190610a8a565b925050819055505b34600d5f3373ffffffffffffffffffffffffffffffffffffffff1673ffffffffffffffffffffffffffffffffffffffff1681526020019081526020015f205f8282546107249190610a8a565b92505081905550600654600d5f3373ffffffffffffffffffffffffffffffffffffffff1673ffffffffffffffffffffffffffffffffffffffff1681526020019081526020015f2054111561082e573360055f6101000a81548173ffffffffffffffffffffffffffffffffffffffff021916908373ffffffffffffffffffffffffffffffffffffffff160217905550600d5f3373ffffffffffffffffffffffffffffffffffffffff1673ffffffffffffffffffffffffffffffffffffffff1681526020019081526020015f20546006819055507f176a3512dc8ecaeaf1fbbebde43923d52651bd62a3e1cbcd015d27261cfd198c336040516108259190610aff565b60405180910390a15b7f2dee2238abf506bc098494e4b1beabcf53c6d5cf94f32d8a601b4564254c1b088160405161085d9190610880565b60405180910390a150565b5f819050919050565b61087a81610868565b82525050565b5f6020820190506108935f830184610871565b92915050565b5f80fd5b6108a681610868565b81146108b0575f80fd5b50565b5f813590506108c18161089d565b92915050565b5f602082840312156108dc576108db610899565b5b5f6108e9848285016108b3565b91505092915050565b5f819050919050565b610904816108f2565b811461090e575f80fd5b50565b5f8135905061091f816108fb565b92915050565b5f73ffffffffffffffffffffffffffffffffffffffff82169050919050565b5f61094e82610925565b9050919050565b61095e81610944565b8114610968575f80fd5b50565b5f8135905061097981610955565b92915050565b5f805f805f805f60e0888a03121561099a57610999610899565b5b5f6109a78a828b01610911565b97505060206109b88a828b01610911565b96505060406109c98a828b0161096b565b95505060606109da8a828b01610911565b94505060806109eb8a828b0161096b565b93505060a06109fc8a828b01610911565b92505060c0610a0d8a828b016108b3565b91505092959891949750929550565b7f4e487b71000000000000000000000000000000000000000000000000000000005f52601160045260245ffd5b5f610a5382610868565b9150610a5e83610868565b9250828202610a6c81610868565b91508282048414831517610a8357610a82610a1c565b5b5092915050565b5f610a9482610868565b9150610a9f83610868565b9250828201905080821115610ab757610ab6610a1c565b5b92915050565b5f610ac782610868565b9150610ad283610868565b9250828203905081811115610aea57610ae9610a1c565b5b92915050565b610af981610944565b82525050565b5f602082019050610b125f830184610af0565b9291505056fea26469706673582212207faf90b02db56b6589c5f3bc7bce223bea8d7cb14db105f978ab4e44e82c70ad64736f6c63430008150033",
  "immutableReferences": {},
  "source": "pragma solidity >=0.4.22 <0.9.0;\n\ncontract MatchingProgram {\n    uint public state;\n    address recipient;\n    bytes32 recipientName;\n    address sponsor;\n    bytes32 sponsorName;\n\n    address topDonor;\n    uint topDonatedAmount;\n\n    uint matchingAmount;\n    uint matchingAmountLeft;\n    bytes32 programName;\n    bytes32 programDescription;\n\n    uint matchingRatio;\n    uint endTime;\n\n    mapping(address => uint) donors;\n    uint donorCount;\n\n    event DonatedEvent(uint donatedAmount);\n    event MatchingProgramStartedEvent(uint matchingAmount);\n    event NewTopDonorEvent(address donorAddress);\n\n    error NoAmountSent();\n    error PastInitialFundState();\n    error NoMatchingAmountSet();\n    error FundraiseEnded();\n    error FundraiseNotEnded();\n    error RatioLessThanOne();\n\n    struct Donation {\n        uint amount;\n    }\n\n    // Function to get the current count\n    function getState() public view returns (uint) {\n        return state;\n    }\n\n    function getMatchingAmountLeft() public view returns (uint) {\n        return matchingAmountLeft;\n    }\n\n    function getInitialMatchingAmount() public view returns (uint) {\n        return matchingAmount;\n    }\n\n    constructor(\n        bytes32 inputProgramName,\n        bytes32 inputProgramDescription,\n        address intendedRecipient,\n        bytes32 inputRecipientName,\n        address inputSponsor,\n        bytes32 inputSponsorName,\n        uint inputEndTime\n    ) {\n        recipient = intendedRecipient;\n        recipientName = inputRecipientName;\n        sponsor = inputSponsor;\n        sponsorName = inputSponsorName;\n        programName = inputProgramName;\n        programDescription = inputProgramDescription;\n        endTime = inputEndTime;\n        state = 0;\n        donorCount = 0;\n    }\n\n    function init(\n        bytes32 inputProgramName,\n        bytes32 inputProgramDescription,\n        address intendedRecipient,\n        bytes32 inputRecipientName,\n        address inputSponsor,\n        bytes32 inputSponsorName,\n        uint inputEndTime\n    ) public {\n        recipient = intendedRecipient;\n        recipientName = inputRecipientName;\n        sponsor = inputSponsor;\n        sponsorName = inputSponsorName;\n        programName = inputProgramName;\n        programDescription = inputProgramDescription;\n        endTime = inputEndTime;\n        state = 0;\n        donorCount = 0;\n    }\n\n    function fundInitialMatchingAccount(uint ratio) external payable {\n        if (msg.value == 0) revert NoAmountSent();\n        if (state != 0) revert PastInitialFundState();\n        if (ratio <= 0) revert RatioLessThanOne();\n        if (block.timestamp < endTime) {\n            revert FundraiseEnded();\n        }\n        matchingAmountLeft = msg.value;\n        matchingAmount = msg.value;\n        matchingRatio = ratio;\n        emit MatchingProgramStartedEvent(matchingAmountLeft);\n        state = 1;\n    }\n\n    function donate() external payable {\n        // msg.value\n        if (state == 0) revert NoMatchingAmountSet();\n        if (block.timestamp < endTime) {\n            revert FundraiseEnded();\n        }\n        uint amountToSend = 0;\n        if (msg.value <= matchingRatio * matchingAmountLeft) {\n            amountToSend = msg.value * (matchingRatio + 1);\n            matchingAmountLeft -= msg.value * matchingRatio;\n            payable(recipient).transfer(amountToSend);\n        } else if (msg.value > matchingRatio * matchingAmountLeft) {\n            amountToSend = msg.value + matchingAmountLeft;\n            matchingAmountLeft = 0;\n            payable(recipient).transfer(amountToSend);\n        }\n        if (donors[msg.sender] == 0) {\n            donorCount += 1;\n        }\n        donors[msg.sender] += msg.value;\n        if (donors[msg.sender] > topDonatedAmount) {\n            topDonor = msg.sender;\n            topDonatedAmount = donors[msg.sender];\n            emit NewTopDonorEvent(msg.sender);\n        }\n        emit DonatedEvent(amountToSend);\n    }\n\n    function endFundRaise() external {\n        if (block.timestamp < endTime) {\n            revert FundraiseEnded();\n        }\n        state = 2;\n    }\n\n    function refundMatchingAmount() external {\n        if (state < 2) {\n            revert FundraiseNotEnded();\n        }\n        payable(sponsor).transfer(matchingAmountLeft);\n    }\n}\n",
  "sourcePath": "/Users/Daniel/Documents/projects/ethDonate/contracts/MatchingProgram.sol",
  "compiler": {
    "name": "solc",
    "version": "0.8.21+commit.d9974bed.Emscripten.clang"
  },
  "schemaVersion": "3.4.16",
  "updatedAt": "2023-09-10T14:44:20.142Z",
  "devdoc": {
    "kind": "dev",
    "methods": {},
    "version": 1
  },
  "userdoc": {
    "kind": "user",
    "methods": {},
    "version": 1
  }
}