{
  "contractName": "MatchingProgram",
  "abi": [
    {
      "inputs": [
        {
          "internalType": "bytes32",
          "name": "inputProgramName",
          "type": "bytes32"
        },
        {
          "internalType": "address",
          "name": "intendedRecipient",
          "type": "address"
        },
        {
          "internalType": "bytes32",
          "name": "inputRecipientName",
          "type": "bytes32"
        },
        {
          "internalType": "address",
          "name": "inputSponsor",
          "type": "address"
        },
        {
          "internalType": "bytes32",
          "name": "inputSponsorName",
          "type": "bytes32"
        },
        {
          "internalType": "uint256",
          "name": "inputEndTime",
          "type": "uint256"
        }
      ],
      "stateMutability": "nonpayable",
      "type": "constructor"
    },
    {
      "inputs": [],
      "name": "FundraiseEnded",
      "type": "error"
    },
    {
      "inputs": [],
      "name": "FundraiseNotEnded",
      "type": "error"
    },
    {
      "inputs": [],
      "name": "NoAmountSent",
      "type": "error"
    },
    {
      "inputs": [],
      "name": "NoMatchingAmountSet",
      "type": "error"
    },
    {
      "inputs": [],
      "name": "PastInitialFundState",
      "type": "error"
    },
    {
      "inputs": [],
      "name": "RatioLessThanOne",
      "type": "error"
    },
    {
      "anonymous": false,
      "inputs": [
        {
          "indexed": false,
          "internalType": "uint256",
          "name": "donatedAmount",
          "type": "uint256"
        }
      ],
      "name": "DonatedEvent",
      "type": "event"
    },
    {
      "anonymous": false,
      "inputs": [
        {
          "indexed": false,
          "internalType": "uint256",
          "name": "matchingAmount",
          "type": "uint256"
        }
      ],
      "name": "MatchingProgramStartedEvent",
      "type": "event"
    },
    {
      "inputs": [],
      "name": "state",
      "outputs": [
        {
          "internalType": "uint256",
          "name": "",
          "type": "uint256"
        }
      ],
      "stateMutability": "view",
      "type": "function"
    },
    {
      "inputs": [],
      "name": "getState",
      "outputs": [
        {
          "internalType": "uint256",
          "name": "",
          "type": "uint256"
        }
      ],
      "stateMutability": "view",
      "type": "function"
    },
    {
      "inputs": [],
      "name": "getMatchingAmountLeft",
      "outputs": [
        {
          "internalType": "uint256",
          "name": "",
          "type": "uint256"
        }
      ],
      "stateMutability": "view",
      "type": "function"
    },
    {
      "inputs": [],
      "name": "getInitialMatchingAmount",
      "outputs": [
        {
          "internalType": "uint256",
          "name": "",
          "type": "uint256"
        }
      ],
      "stateMutability": "view",
      "type": "function"
    },
    {
      "inputs": [
        {
          "internalType": "uint256",
          "name": "ratio",
          "type": "uint256"
        }
      ],
      "name": "fundInitialMatchingAccount",
      "outputs": [],
      "stateMutability": "payable",
      "type": "function"
    },
    {
      "inputs": [],
      "name": "donate",
      "outputs": [],
      "stateMutability": "payable",
      "type": "function"
    },
    {
      "inputs": [],
      "name": "endFundRaise",
      "outputs": [],
      "stateMutability": "nonpayable",
      "type": "function"
    },
    {
      "inputs": [],
      "name": "refundMatchingAmount",
      "outputs": [],
      "stateMutability": "nonpayable",
      "type": "function"
    }
  ],
  "bytecode": "0x608060405234801562000010575f80fd5b5060405162000a7438038062000a748339818101604052810190620000369190620001c0565b8460015f6101000a81548173ffffffffffffffffffffffffffffffffffffffff021916908373ffffffffffffffffffffffffffffffffffffffff160217905550836002819055508260035f6101000a81548173ffffffffffffffffffffffffffffffffffffffff021916908373ffffffffffffffffffffffffffffffffffffffff1602179055508160048190555085600781905550806009819055505f80819055505f600b8190555050505050505062000258565b5f80fd5b5f819050919050565b6200010381620000ef565b81146200010e575f80fd5b50565b5f815190506200012181620000f8565b92915050565b5f73ffffffffffffffffffffffffffffffffffffffff82169050919050565b5f620001528262000127565b9050919050565b620001648162000146565b81146200016f575f80fd5b50565b5f81519050620001828162000159565b92915050565b5f819050919050565b6200019c8162000188565b8114620001a7575f80fd5b50565b5f81519050620001ba8162000191565b92915050565b5f805f805f8060c08789031215620001dd57620001dc620000eb565b5b5f620001ec89828a0162000111565b9650506020620001ff89828a0162000172565b95505060406200021289828a0162000111565b94505060606200022589828a0162000172565b93505060806200023889828a0162000111565b92505060a06200024b89828a01620001aa565b9150509295509295509295565b61080e80620002665f395ff3fe60806040526004361061007a575f3560e01c8063889d3b2c1161004d578063889d3b2c146101045780639404cabb1461012e578063c19d93fb14610144578063ed88c68e1461016e5761007a565b80631865c57d1461007e57806319d95163146100a8578063764228db146100be5780638550f48d146100da575b5f80fd5b348015610089575f80fd5b50610092610178565b60405161009f9190610692565b60405180910390f35b3480156100b3575f80fd5b506100bc610180565b005b6100d860048036038101906100d391906106d9565b610225565b005b3480156100e5575f80fd5b506100ee610365565b6040516100fb9190610692565b60405180910390f35b34801561010f575f80fd5b5061011861036e565b6040516101259190610692565b60405180910390f35b348015610139575f80fd5b50610142610377565b005b34801561014f575f80fd5b506101586103bc565b6040516101659190610692565b60405180910390f35b6101766103c1565b005b5f8054905090565b60025f5410156101bc576040517f554654bb00000000000000000000000000000000000000000000000000000000815260040160405180910390fd5b60035f9054906101000a900473ffffffffffffffffffffffffffffffffffffffff1673ffffffffffffffffffffffffffffffffffffffff166108fc60065490811502906040515f60405180830381858888f19350505050158015610222573d5f803e3d5ffd5b50565b5f340361025e576040517f4518146e00000000000000000000000000000000000000000000000000000000815260040160405180910390fd5b5f805414610298576040517f819dd98700000000000000000000000000000000000000000000000000000000815260040160405180910390fd5b5f81116102d1576040517f03b1d45000000000000000000000000000000000000000000000000000000000815260040160405180910390fd5b60095442101561030d576040517fd02ce1d200000000000000000000000000000000000000000000000000000000815260040160405180910390fd5b3460068190555034600581905550806008819055507f4252cea3513ce29b45f3d459bada8ec0d6626baf3dbfe1a8538f7ca2d85aefbd6006546040516103539190610692565b60405180910390a160015f8190555050565b5f600554905090565b5f600654905090565b6009544210156103b3576040517fd02ce1d200000000000000000000000000000000000000000000000000000000815260040160405180910390fd5b60025f81905550565b5f5481565b5f8054036103fb576040517f9767129800000000000000000000000000000000000000000000000000000000815260040160405180910390fd5b600954421015610437576040517fd02ce1d200000000000000000000000000000000000000000000000000000000815260040160405180910390fd5b5f6006546008546104489190610731565b34116104f957600160085461045d9190610772565b346104689190610731565b9050600854346104789190610731565b60065f82825461048891906107a5565b9250508190555060015f9054906101000a900473ffffffffffffffffffffffffffffffffffffffff1673ffffffffffffffffffffffffffffffffffffffff166108fc8290811502906040515f60405180830381858888f193505050501580156104f3573d5f803e3d5ffd5b5061058e565b6006546008546105099190610731565b34111561058d576006543461051e9190610772565b90505f60068190555060015f9054906101000a900473ffffffffffffffffffffffffffffffffffffffff1673ffffffffffffffffffffffffffffffffffffffff166108fc8290811502906040515f60405180830381858888f1935050505015801561058b573d5f803e3d5ffd5b505b5b5f600a5f3373ffffffffffffffffffffffffffffffffffffffff1673ffffffffffffffffffffffffffffffffffffffff1681526020019081526020015f205403156105ed576001600b5f8282546105e59190610772565b925050819055505b34600a5f3373ffffffffffffffffffffffffffffffffffffffff1673ffffffffffffffffffffffffffffffffffffffff1681526020019081526020015f205f8282546106399190610772565b925050819055507f2dee2238abf506bc098494e4b1beabcf53c6d5cf94f32d8a601b4564254c1b088160405161066f9190610692565b60405180910390a150565b5f819050919050565b61068c8161067a565b82525050565b5f6020820190506106a55f830184610683565b92915050565b5f80fd5b6106b88161067a565b81146106c2575f80fd5b50565b5f813590506106d3816106af565b92915050565b5f602082840312156106ee576106ed6106ab565b5b5f6106fb848285016106c5565b91505092915050565b7f4e487b71000000000000000000000000000000000000000000000000000000005f52601160045260245ffd5b5f61073b8261067a565b91506107468361067a565b92508282026107548161067a565b9150828204841483151761076b5761076a610704565b5b5092915050565b5f61077c8261067a565b91506107878361067a565b925082820190508082111561079f5761079e610704565b5b92915050565b5f6107af8261067a565b91506107ba8361067a565b92508282039050818111156107d2576107d1610704565b5b9291505056fea2646970667358221220b88e3c598bef76c41fad94d96346dce25bd7b35c2d42ac5a7d7486e1b6aaf08a64736f6c63430008150033",
  "immutableReferences": {},
  "source": "pragma solidity >=0.4.22 <0.9.0;\n\ncontract MatchingProgram {\n    uint public state;\n    address recipient;\n    bytes32 recipientName;\n    address sponsor;\n    bytes32 sponsorName;\n\n    uint matchingAmount;\n    uint matchingAmountLeft;\n    bytes32 programName;\n    uint matchingRatio;\n    uint endTime;\n\n    mapping(address => uint) donors;\n    uint donorCount;\n\n    event DonatedEvent(uint donatedAmount);\n    event MatchingProgramStartedEvent(uint matchingAmount);\n\n    error NoAmountSent();\n    error PastInitialFundState();\n    error NoMatchingAmountSet();\n    error FundraiseEnded();\n    error FundraiseNotEnded();\n    error RatioLessThanOne();\n\n    struct Donation {\n        uint amount;\n    }\n\n    // Function to get the current count\n    function getState() public view returns (uint) {\n        return state;\n    }\n\n    function getMatchingAmountLeft() public view returns (uint) {\n        return matchingAmountLeft;\n    }\n\n    function getInitialMatchingAmount() public view returns (uint) {\n        return matchingAmount;\n    }\n\n    constructor(\n        bytes32 inputProgramName,\n        address intendedRecipient,\n        bytes32 inputRecipientName,\n        address inputSponsor,\n        bytes32 inputSponsorName,\n        uint inputEndTime\n    ) {\n        recipient = intendedRecipient;\n        recipientName = inputRecipientName;\n        sponsor = inputSponsor;\n        sponsorName = inputSponsorName;\n        programName = inputProgramName;\n        endTime = inputEndTime;\n        state = 0;\n        donorCount = 0;\n    }\n\n    function fundInitialMatchingAccount(uint ratio) external payable {\n        if (msg.value == 0) revert NoAmountSent();\n        if (state != 0) revert PastInitialFundState();\n        if (ratio <= 0) revert RatioLessThanOne();\n        if (block.timestamp < endTime) {\n            revert FundraiseEnded();\n        }\n        matchingAmountLeft = msg.value;\n        matchingAmount = msg.value;\n        matchingRatio = ratio;\n        emit MatchingProgramStartedEvent(matchingAmountLeft);\n        state = 1;\n    }\n\n    function donate() external payable {\n        // msg.value\n        if (state == 0) revert NoMatchingAmountSet();\n        if (block.timestamp < endTime) {\n            revert FundraiseEnded();\n        }\n        uint amountToSend = 0;\n        if (msg.value <= matchingRatio * matchingAmountLeft) {\n            amountToSend = msg.value * (matchingRatio + 1);\n            matchingAmountLeft -= msg.value * matchingRatio;\n            payable(recipient).transfer(amountToSend);\n        } else if (msg.value > matchingRatio * matchingAmountLeft) {\n            amountToSend = msg.value + matchingAmountLeft;\n            matchingAmountLeft = 0;\n            payable(recipient).transfer(amountToSend);\n        }\n        if (donors[msg.sender] == 0) {} else {\n            donorCount += 1;\n        }\n        donors[msg.sender] += msg.value;\n        emit DonatedEvent(amountToSend);\n    }\n\n    function endFundRaise() external {\n        if (block.timestamp < endTime) {\n            revert FundraiseEnded();\n        }\n        state = 2;\n    }\n\n    function refundMatchingAmount() external {\n        if (state < 2) {\n            revert FundraiseNotEnded();\n        }\n        payable(sponsor).transfer(matchingAmountLeft);\n    }\n}\n",
  "sourcePath": "/Users/Daniel/Documents/projects/ethDonate/contracts/MatchingProgram.sol",
  "compiler": {
    "name": "solc",
    "version": "0.8.21+commit.d9974bed.Emscripten.clang"
  },
  "schemaVersion": "3.4.16",
  "updatedAt": "2023-09-10T09:29:26.106Z",
  "devdoc": {
    "kind": "dev",
    "methods": {},
    "version": 1
  },
  "userdoc": {
    "kind": "user",
    "methods": {},
    "version": 1
  }
}