{
  "contractName": "MatchingProgram",
  "abi": [
    {
      "inputs": [
        {
          "internalType": "bytes32",
          "name": "inputProgramName",
          "type": "bytes32"
        },
        {
          "internalType": "address",
          "name": "intendedRecipient",
          "type": "address"
        },
        {
          "internalType": "bytes32",
          "name": "inputRecipientName",
          "type": "bytes32"
        }
      ],
      "stateMutability": "nonpayable",
      "type": "constructor"
    },
    {
      "inputs": [],
      "name": "NoAmountSent",
      "type": "error"
    },
    {
      "inputs": [],
      "name": "NoMatchingAmountSet",
      "type": "error"
    },
    {
      "anonymous": false,
      "inputs": [
        {
          "indexed": false,
          "internalType": "uint256",
          "name": "donatedAmount",
          "type": "uint256"
        }
      ],
      "name": "DonatedEvent",
      "type": "event"
    },
    {
      "anonymous": false,
      "inputs": [
        {
          "indexed": false,
          "internalType": "uint256",
          "name": "matchingAmount",
          "type": "uint256"
        }
      ],
      "name": "MatchingProgramStartedEvent",
      "type": "event"
    },
    {
      "inputs": [],
      "name": "state",
      "outputs": [
        {
          "internalType": "uint256",
          "name": "",
          "type": "uint256"
        }
      ],
      "stateMutability": "view",
      "type": "function"
    },
    {
      "inputs": [],
      "name": "getState",
      "outputs": [
        {
          "internalType": "uint256",
          "name": "",
          "type": "uint256"
        }
      ],
      "stateMutability": "view",
      "type": "function"
    },
    {
      "inputs": [],
      "name": "inc",
      "outputs": [],
      "stateMutability": "nonpayable",
      "type": "function"
    },
    {
      "inputs": [],
      "name": "dec",
      "outputs": [],
      "stateMutability": "nonpayable",
      "type": "function"
    },
    {
      "inputs": [],
      "name": "sendMatchingAmount",
      "outputs": [],
      "stateMutability": "payable",
      "type": "function"
    },
    {
      "inputs": [],
      "name": "donate",
      "outputs": [],
      "stateMutability": "payable",
      "type": "function"
    }
  ],
  "bytecode": "0x608060405234801561000f575f80fd5b506040516105d03803806105d08339818101604052810190610031919061011e565b8160015f6101000a81548173ffffffffffffffffffffffffffffffffffffffff021916908373ffffffffffffffffffffffffffffffffffffffff16021790555080600281905550826005819055505f808190555050505061016e565b5f80fd5b5f819050919050565b6100a381610091565b81146100ad575f80fd5b50565b5f815190506100be8161009a565b92915050565b5f73ffffffffffffffffffffffffffffffffffffffff82169050919050565b5f6100ed826100c4565b9050919050565b6100fd816100e3565b8114610107575f80fd5b50565b5f81519050610118816100f4565b92915050565b5f805f606084860312156101355761013461008d565b5b5f610142868287016100b0565b93505060206101538682870161010a565b9250506040610164868287016100b0565b9150509250925092565b6104558061017b5f395ff3fe608060405260043610610054575f3560e01c80631865c57d14610058578063371303c0146100825780637dfe0d4f14610098578063b3bcfa82146100a2578063c19d93fb146100b8578063ed88c68e146100e2575b5f80fd5b348015610063575f80fd5b5061006c6100ec565b6040516100799190610373565b60405180910390f35b34801561008d575f80fd5b506100966100f4565b005b6100a06100f6565b005b3480156100ad575f80fd5b506100b661017f565b005b3480156100c3575f80fd5b506100cc610181565b6040516100d99190610373565b60405180910390f35b6100ea610186565b005b5f8054905090565b565b5f340361012f576040517f4518146e00000000000000000000000000000000000000000000000000000000815260040160405180910390fd5b34600481905550346003819055507f4252cea3513ce29b45f3d459bada8ec0d6626baf3dbfe1a8538f7ca2d85aefbd60045460405161016e9190610373565b60405180910390a160015f81905550565b565b5f5481565b5f8054036101c0576040517f9767129800000000000000000000000000000000000000000000000000000000815260040160405180910390fd5b6004543411610298573460045f8282546101da91906103b9565b9250508190555060015f9054906101000a900473ffffffffffffffffffffffffffffffffffffffff1673ffffffffffffffffffffffffffffffffffffffff166108fc343461022891906103ec565b90811502906040515f60405180830381858888f19350505050158015610250573d5f803e3d5ffd5b507f2dee2238abf506bc098494e4b1beabcf53c6d5cf94f32d8a601b4564254c1b08343461027e91906103ec565b60405161028b9190610373565b60405180910390a1610359565b600454341115610358575f600454346102b191906103ec565b90505f60048190555060015f9054906101000a900473ffffffffffffffffffffffffffffffffffffffff1673ffffffffffffffffffffffffffffffffffffffff166108fc8290811502906040515f60405180830381858888f1935050505015801561031e573d5f803e3d5ffd5b507f2dee2238abf506bc098494e4b1beabcf53c6d5cf94f32d8a601b4564254c1b088160405161034e9190610373565b60405180910390a1505b5b565b5f819050919050565b61036d8161035b565b82525050565b5f6020820190506103865f830184610364565b92915050565b7f4e487b71000000000000000000000000000000000000000000000000000000005f52601160045260245ffd5b5f6103c38261035b565b91506103ce8361035b565b92508282039050818111156103e6576103e561038c565b5b92915050565b5f6103f68261035b565b91506104018361035b565b92508282019050808211156104195761041861038c565b5b9291505056fea26469706673582212204291e06da8956f9dad94f09f8877c7dd3cf6e35d97607bec446537d9a2325c2164736f6c63430008150033",
  "immutableReferences": {},
  "source": "pragma solidity >=0.4.22 <0.9.0;\n\ncontract MatchingProgram {\n    uint public state;\n    address recipient;\n    bytes32 recipientName;\n    uint initialMatchingAmount;\n    uint matchingAmountLeft;\n    bytes32 programName;\n\n    event DonatedEvent(uint donatedAmount);\n    event MatchingProgramStartedEvent(uint matchingAmount);\n\n    error NoAmountSent();\n    error NoMatchingAmountSet();\n\n    // Function to get the current count\n    function getState() public view returns (uint) {\n        return state;\n    }\n\n    // Function to increment count by 1\n    function inc() public {}\n\n    // Function to decrement count by 1\n    function dec() public {\n        // This function will fail if count = 0\n    }\n\n    constructor(\n        bytes32 inputProgramName,\n        address intendedRecipient,\n        bytes32 inputRecipientName\n    ) {\n        recipient = intendedRecipient;\n        recipientName = inputRecipientName;\n        programName = inputProgramName;\n        state = 0;\n    }\n\n    function sendMatchingAmount() external payable {\n        if (msg.value == 0) revert NoAmountSent();\n\n        matchingAmountLeft = msg.value;\n        initialMatchingAmount = msg.value;\n\n        emit MatchingProgramStartedEvent(matchingAmountLeft);\n\n        state = 1;\n    }\n\n    function donate() external payable {\n        // msg.value\n        if (state == 0) revert NoMatchingAmountSet();\n        if (msg.value <= matchingAmountLeft) {\n            matchingAmountLeft -= msg.value;\n            payable(recipient).transfer(msg.value + msg.value);\n            emit DonatedEvent(msg.value + msg.value);\n        } else if (msg.value > matchingAmountLeft) {\n            uint amountToSend = msg.value + matchingAmountLeft;\n            matchingAmountLeft = 0;\n            payable(recipient).transfer(amountToSend);\n            emit DonatedEvent(amountToSend);\n        }\n    }\n}\n",
  "sourcePath": "/Users/Daniel/Documents/projects/ethDonate/contracts/MatchingProgram.sol",
  "compiler": {
    "name": "solc",
    "version": "0.8.21+commit.d9974bed.Emscripten.clang"
  },
  "schemaVersion": "3.4.16",
  "updatedAt": "2023-09-10T07:00:16.713Z",
  "devdoc": {
    "kind": "dev",
    "methods": {},
    "version": 1
  },
  "userdoc": {
    "kind": "user",
    "methods": {},
    "version": 1
  }
}